:020000040000FA
:10000000700400206D020000710200007302000005
:100010007502000077020000790200000000000075
:100020000000000000000000000000007B02000053
:100030007D020000000000007F020000ED080000CB
:1000400083020000D9050000830200008302000043
:10005000830200008302000083020000830200008C
:10006000830200008302000083020000830200007C
:10007000830200008302000083020000830200006C
:10008000830200008302000083020000830200005C
:100090008302000055090000830200008302000073
:1000A000830200008302000083020000830200003C
:1000B00083020000830200004D060000830200005E
:1000C000830200008302000083020000830200001C
:1000D000830200008302000083020000830200000C
:1000E00083020000830200008302000083020000FC
:1000F00083020000830200008302000083020000EC
:1001000083020000830200008302000083020000DB
:1001100083020000830200008302000083020000CB
:1001200083020000830200008302000083020000BB
:1001300083020000830200008302000083020000AB
:1001400000000000000000000000000000000000AF
:10015000830200008302000083020000830200008B
:10016000000000000000000000000000000000008F
:10017000000000000000000000000000000000007F
:10018000000000000000000000000000000000006F
:10019000000000000000000000000000000000005F
:1001A000000000000000000000000000000000004F
:1001B000830200008302000083020000830200002B
:1001C000830200008302000083020000830200001B
:1001D000830200008302000083020000830200000B
:1001E00083020000830200008302000083020000FB
:1001F00083020000830200008302000083020000EB
:10020000830200008302000083020000000000005F
:1002100083020000830200008302000083020000CA
:1002200083020000830200008302000083020000BA
:1002300083020000830200008302000083020000AA
:10024000830200008302000083020000830200009A
:10025000830200008302000083020000830200008A
:1002600083020000830200008302000000F00AB84D
:10027000FEE7FEE7FEE7FEE7FEE7FEE7FEE7FEE756
:10028000FEE7FEE700F002F800F047F814A696E853
:10029000000CB244B344DA4501D100F03EF8BAE8AC
:1002A0000F000FA696E83000A5EB040504EB060747
:1002B000AAEB0704A7F101074FEA15154FEA34141A
:1002C000A4F10104AC4201D300F027F813F0010FB0
:1002D00018BFFB1A43F0010300F001F8DBE71847F1
:1002E000C40B0000D40B0000704700000023002462
:1002F00000250026103A28BF78C1FBD8520728BF36
:1003000030C148BF0B607047642900F07580002041
:1003100070471FB51FBD10B510BD00F022F9114682
:10032000FFF7F7FF00F0A4FB00F040F903B4FFF77C
:10033000F2FF03BC00F048F972B6704762B670472E
:10034000EFF3108072B6704780F31088704730BFAB
:10035000704702480249014A024B70477000002072
:1003600070040020700000200FB41CB5074B06AAD3
:100370007B4469460090059800F0DBF80020694650
:1003800000F0EAF81CBC5DF814FB0000E501000079
:100390002DE9F0410E460446002020622046E16827
:1003A000884730B3252805D0D4E901219047206A39
:1003B000401CF2E7E168204600278847050018D076
:1003C000A5F14100192802D820354FF400673246C4
:1003D000294620462760FFF797FF40B1012804D047
:1003E000F61D26F007060836D8E7361DD6E728465C
:1003F000DAE7206ABDE8F0812DE9F04106460024E5
:1004000010687529314616A510D0AFF3008000287A
:1004100002DA404213A507E031688A0701D512A528
:1004200002E0490704D511A5012401E0AFF30080E3
:1004300000210A2206F1240709E0B0FBF2FCB0FB20
:10044000F2F302FB1C00303078541846491C002897
:10045000F3D123462A463046BDE8F04100F00BB800
:10046000000000002D0000002B0000002000000014
:100470007047704770472DE9F0470D469946924600
:10048000044600F124080168880604D5E06921F0DB
:100490001001216000E00120A84201DD471B00E0BF
:1004A0000027A1697A1902EB0900081AA0612078D7
:1004B000C00602D42046AFF30080002608E0D4E94D
:1004C00001211AF806009047206A401C761C206221
:1004D0004E45F4DB2078C0060AD52046AFF30080F5
:1004E00006E0D4E9012130209047206A401C2062B8
:1004F000381EA7F10107F4DC07E0D4E9012118F860
:1005000005009047206A401C2062281EA5F10105C5
:10051000F3DC2046AFF300802078000602D50220ED
:10052000BDE8F0870120FBE701694A1C02610878F9
:10053000704700B58FB0CDE9013100210591054923
:100540007944CDE9031011466846FFF721FF0FB04B
:1005500000BD0000E5FFFFFF0A6802F8010B0A601A
:100560007047754600F02CF8AE46050069465346C4
:1005700020F00700854618B020B5FFF7EAFEBDE879
:1005800020404FF000064FF000074FF000084FF0FA
:10059000000BAC46ACE8C009ACE8C009ACE8C00947
:1005A000ACE8C00921F007018D46704710B504463C
:1005B000AFF300802046BDE81040FFF7B7BE000053
:1005C000004870470000002001491820ABBEFEE73C
:1005D000260002007047000010B545F24004C4F246
:1005E0000004D4F8D803C00658BF10BD20681028F6
:1005F00004D14FF6FF7000F061F823E000F072F8CC
:1006000000F050F800F03DFB0023C3F6B073002269
:1006100000F04AFB46F6007248F6C573C0F281420C
:10062000C3F6A17300F040FB00F0FEFA40F2640153
:100630004008C2F20001086040F26800C2F2000007
:10064000012101701020C4F8DC0310BD45F21440F4
:10065000C4F202000168C90605D540F26901C2F280
:10066000000101220A7010218160704741F20C01E3
:100670004FF0FF32C4F2030102EB0010C86140F2F8
:1006800060000022C2F20000CA6202700A6842F0F2
:1006900001020A600278002AFCD0086820F00100FC
:1006A0000860704741F22800C4F203000168026A42
:1006B0000069891A013048437047000041F20C017B
:1006C0000138C4F20301C8610520C86240F260002D
:1006D000C2F2000000220270086840F001000860C9
:1006E0007047000041F20C00C4F20300016821F0E1
:1006F00001010160704700004EF27000C4F20F006B
:100700000168182241F000410160016841F4006174
:10071000016050F8101C21F4F86140F8101C50F8EA
:10072000101C01F5A86140F8101C016821F070014F
:10073000016001680160016821F4005101600168F5
:1007400041F080410160016862F39C51016000BF8B
:1007500050F8201C4906FBD5016821F400610160B6
:10076000704700004EF20810C4F20F00016841F01B
:100770000201016001688907FCD545F20040C4F21E
:100780000000D0F82C11032221F47F01C0F82C11B5
:10079000D0F8281121F03001C0F82811016821F0AB
:1007A00010010160016841F020010160016A21F03F
:1007B00030010162D0F81C1141F03001C0F81C1169
:1007C000416821F010014160816841F010018160B1
:1007D0001021C161016941F0100101614EF2004038
:1007E000CEF20000016862F34F3101604FF6005114
:1007F000CFF6FF7102224250704700004EF20860AF
:10080000C4F20F00016841F020010160016889060F
:10081000FCD545F2004044F24B31C4F20200C4F66C
:100820004F41C0F82011D0F824114FF2F00241F0EE
:100830001E01C0F82411D0F8281121F00E01C0F8D3
:100840002811D0F82C119143C0F82C110168042212
:1008500041F00E010160016A21F00E010162D0F841
:100860001C1141F00E01C0F81C11D0F8281121F024
:100870001001C0F82811D0F82C1121F47021C0F813
:100880002C11D0F81C1141F01001C0F81C110168A6
:1008900021F010010160016A21F010010162D0F81D
:1008A000101141F01001C0F81011416821F0100141
:1008B0004160816821F010018160C16821F0100160
:1008C000C1601021C161016941F0100101614EF266
:1008D0000010CEF20000D0F81C1362F35751C0F89C
:1008E0001C13016841F080410160704740F26400D0
:1008F000C2F2000000680A2888BF704745F238003D
:10090000C4F20200016881F002010160704700003A
:100910004EF21000CEF200000021016006210160BD
:10092000704700004EF210010138CEF2000148601D
:1009300000208860086840F00100086070470000EF
:100940004EF21000CEF20000016821F001010160BA
:100950007047000041F22400C4F20300012101604D
:1009600040F26000C2F20000017070474EF2046075
:10097000C4F20F00016841F00201016041F20C0075
:10098000C4F20300016821F001010160042140F874
:100990000C1C022140F8081C0521C1620121C16024
:1009A00081614EF20010CEF200004FF400110160A0
:1009B000704700004EF20860C4F20F000169172270
:1009C00041F001010161016840F2013341F0010190
:1009D00001604CF23000C4F20000002101601121DE
:1009E00040F80C1C40F8082C702240F8042C0268D7
:1009F0001A43026044F22040C4F20000026842F050
:100A000003020260D0F8FC2042F00302C0F8FC2090
:100A1000D0F80C2161F30702C0F80C21D0F80811BE
:100A200021F00301C0F80811704700004CF20000EB
:100A3000C4F2000081698906FCD40D21016000BF69
:100A400081698906FCD40A21016070470178002978
:100A500008BF70474CF20002C4F2000293699B0683
:100A6000FCD4116010F8011F0029F7D17047000075
:100A700096B045F2380745F28005C4F20207C4F289
:100A80000005FFF76FFEFFF771FFFFF741FFFFF76C
:100A9000B5FEFFF731FEFFF78DFFFFF74FFCFFF7C5
:100AA000C5FF40F264044FF0000BC2F20004652061
:100AB000C7F800B0206052A040F2680640F2690812
:100AC0004168C2F20006C2F2000886F800B088F859
:100AD00000B008918168B0F824900791C1680DF1C9
:100AE000240A069101690591416904918169039184
:100AF000C1690291016A019190F82610009101E00C
:100B00000020386098F800000028FBD088F800B07A
:100B100086F800B0C4F800B0286820F020002860F3
:100B20000220FFF7A3FD286840F0200028600A207B
:100B3000FFF79CFD286820F020002860307800280E
:100B4000FCD02068652817D32D48ADF8489009904F
:100B500008980A9007980B9006980C9005980D90AD
:100B600004980E9003980F9002981090019811909D
:100B700000988DF84A0004E02268504618A1FFF75B
:100B8000F3FB5046FFF762FF20680A280CD840F6B6
:100B90000010C0F23D00FFF7C5FE386820F00800E5
:100BA00038606FF0040003E0FFF7CAFE6FF0020048
:100BB00039680840386020680B2804D3206847282B
:100BC00001D2082006E02068472899D320686428CD
:100BD00096D80420396821F00C010843386091E769
:100BE0005468652063757272656E742064697374ED
:100BF000616E6365206973092025640A0D00000099
:100C00005468652063757272656E742064697374CC
:100C1000616E6365206973204F5554204F46205202
:100C2000414E47450A0D00004FEA1153A3F580637A
:100C3000D3F11E03A8BFD3F1200C08DB4FF0004214
:100C400042EAC12252EA505232FA03F07047094296
:100C50000BD4102BC4BF0020704703F5787CBCF187
:100C6000FF3F05D04FF0FF3070474FF00000704756
:100C700070B500F0C3F800BF49922480002070478F
:100C8000F0E7B0FA80F310FA03F10AD0C3F11D03C4
:100C900003F580634FEA03524FEA415002EBD12142
:100CA00070474FF00000704770B5DFF848C11CEA8C
:100CB000111E1EBF1CEA13159EEA0C0F95EA0C0FBD
:100CC00000F06F8081EA03044EEAD47EAE4421EA4C
:100CD0004C1123EA4C1341F4801143F48013AEF11C
:100CE0007F7EA1FB024CA0FB0365361955EB0C057A
:100CF000A1FB034C4CF10003A0FB021C16EB0C06FD
:100D0000654153F10003094218BF46F0010613F490
:100D1000007F0BD14FEA03314FEA053041EA15510C
:100D200040EA165034036FF003020AE04FEAC32191
:100D30004FEAC52041EA555140EA5650F4026FF09F
:100D4000020202EB2E4201EB025585EACE710AD077
:100D50005FEA440C18BF24F0004450F1000041F158
:100D6000000120EAD47040F2FE7C624500D270BDE2
:100D7000A84214BF4FF080444FF04044002E08BFFB
:100D80000024BEF1806FA8BFA1F1C041BDE8704052
:100D900080F2828001F1C04101F000414FF000007B
:100DA00070470CEA13159EEA0C0F18BF95EA0C0F5A
:100DB00006D081EA030E4FF000000EF0004170BD36
:100DC00000F01CF88900013E00F007B800F009B8F7
:100DD0004FEA430C5FEA5C5C08D081EA030100F053
:100DE0005BB84FEA410C5FEA5C5CF6D102494FF018
:100DF000000070470000FF070000F87F0EF1020EB0
:100E00002EF0030E5EF8046B364205D4012A43EB44
:100E1000030515F5001F12D8012841EB010C1CF544
:100E2000001F0CD80ED14FEAD17C0CEB4C0C0CF10E
:100E3000020C15F5001F08BF4CEBD37C04E04FF00B
:100E4000080C01E04FEAD37C0CEB4C0526FA05F6C2
:100E500006F00706B6F1040C06D20EEB860CBDE8D0
:100E600070404CF0010C6047DFE80CF0090B020207
:100E70004FF00041A1F500214FF0000070BD194670
:100E80001046012851EB010418BFD4F5001484BFAB
:100E9000002001F0004170BD0808A0F500114FEAE4
:100EA00031017047B40E0000000000207004000003
:040EB000EC02000050
:040000050000026D88
:00000001FF
