:020000040000FA
:10000000F80600206D02000071020000730200007B
:100010007502000077020000790200000000000075
:100020000000000000000000000000007B02000053
:100030007D020000000000007F020000712E000021
:10004000830200008302000083020000830200009C
:10005000830200008302000083020000830200008C
:10006000830200008302000083020000830200007C
:10007000830200008302000083020000830200006C
:10008000830200008302000083020000830200005C
:10009000830200005D2F0000830200008302000045
:1000A000830200008302000083020000830200003C
:1000B0008302000083020000E118000083020000B8
:1000C000830200008302000083020000830200001C
:1000D000830200008302000083020000830200000C
:1000E00083020000830200008302000083020000FC
:1000F00083020000830200008302000083020000EC
:1001000083020000830200008302000083020000DB
:1001100083020000830200008302000083020000CB
:1001200083020000830200008302000083020000BB
:1001300083020000830200008302000083020000AB
:1001400000000000000000000000000000000000AF
:10015000830200008302000083020000830200008B
:10016000000000000000000000000000000000008F
:10017000000000000000000000000000000000007F
:10018000000000000000000000000000000000006F
:10019000000000000000000000000000000000005F
:1001A000000000000000000000000000000000004F
:1001B000830200008302000083020000830200002B
:1001C000830200008302000083020000830200001B
:1001D000830200008302000083020000830200000B
:1001E00083020000830200008302000083020000FB
:1001F00083020000830200008302000083020000EB
:10020000830200008302000083020000000000005F
:1002100083020000830200008302000083020000CA
:1002200083020000830200008302000083020000BA
:1002300083020000830200008302000083020000AA
:10024000830200008302000083020000830200009A
:10025000830200008302000083020000830200008A
:1002600083020000830200008302000000F00AB84D
:10027000FEE7FEE7FEE7FEE7FEE7FEE7FEE7FEE756
:10028000FEE7FEE700F002F800F0A6F814A696E8F4
:10029000000CB244B344DA4501D100F09DF8BAE84D
:1002A0000F000FA696E83000A5EB040504EB060747
:1002B000AAEB0704A7F101074FEA15154FEA34141A
:1002C000A4F10104AC4201D300F086F813F0010F51
:1002D00018BFFB1A43F0010300F001F8DBE71847F1
:1002E000E05D0000005E0000103A24BF78C878C1CD
:1002F000FAD8520724BF30C830C144BF04680C602C
:1003000070470000704700000023002400250026ED
:10031000103A28BF78C1FBD8520728BF30C148BF68
:100320000B6070476E2900F03781702900F07982E8
:10033000662903F01F83652903F01C83672903F0F6
:100340001983612903F0188303681B0A28BF41F051
:100350008001692900F0E480642900F0E1807529BA
:1003600000F0DE806F2900F00782782900F04582D6
:10037000E92900F0A181E42900F09E81F52900F02F
:100380009B81EF2900F00482F82900F04482036881
:10039000DB0928BF41F08001632900F045877329FC
:1003A00000F04A87E32900F05587F32900F05A87C7
:1003B000002070471FB500F0ABFF040000200021B3
:1003C00003F0C2FA401C60600020002103F0A6FA8E
:1003D000E0601FBD10B510BD00F06CFF1146FFF7C7
:1003E000E9FF02F07FFE01F049F803B4FFF7F2FFE6
:1003F00003BC01F08FF8000072B6704762B6704718
:10040000EFF3108072B6704780F31088704730BFEA
:10041000704702480249014A024B7047F802002027
:10042000F8060020F80200200FB41CB5084B06AAFD
:100430007B4469460090059800F0C7F80446002008
:10044000694600F0D5F820461CBC5DF814FB00009E
:10045000BD01000070477047704770B5044685695C
:100460000068C10601D5302600E02026C00707D06D
:1004700070BDD4E9012130469047206A401C2062BB
:100480006D1EF6D570BD70B5044685690078C0074D
:1004900007D170BDD4E9012120209047206A401C7B
:1004A00020626D1EF6D570BD09684A0501D540B2BF
:1004B0007047C905FCD500B2704709684A0501D5E7
:1004C000C0B27047C905FCD580B2704770B50C4604
:1004D0000546012A05D02878800600D5EA69002360
:1004E00002E0012305E05B1C934202D2E05C00289D
:1004F000F9D1A869E618C01AA861286A18442862C8
:100500002846FFF7AAFF04E0D5E9012114F8010B02
:100510009047B442F8D32846FFF7B5FF70BD0000FE
:100520002DE9F0410646002410687529314616A5CC
:1005300010D0FFF7B9FF002802DA404213A507E008
:1005400031688A0701D512A502E0490704D511A533
:10055000012401E0FFF7B1FF00210A2206F1240780
:1005600009E0B0FBF2FCB0FBF2F302FB1C00303000
:1005700078541846491C0028F3D123462A463046B1
:10058000BDE8F04100F061BA000000002D0000005D
:100590002B0000002000000011680268006A53056B
:1005A00001D508700AE0D30501D5088006E01306DE
:1005B00003D5C217C1E9000200E0086001207047BE
:1005C00001694A1C02610878704700B58FB0CDE917
:1005D00001310021059105497944CDE90310114607
:1005E000684600F029F90FB000BD0000E5FFFFFFED
:1005F0000A6802F8010B0A60704700002DE9FF5FEE
:1006000015468A460446DFF8AC80F8440027D8E94E
:1006100000103E46CDE9001010E03AF816106A4688
:1006200002A800F023FE411C07D02178890603D5DB
:10063000E269391891420DD80744761C207880066B
:1006400002D5E069B84205DDAE42E6DB3AF81600B5
:100650000028E2D1A069C01BA0612046FFF7FDFE83
:10066000D8E90010CDE90010002017E03AF8181082
:100670006A4602A800F0FAFDB0F1FF3F81460BD0B8
:1006800000250DF1080B05E0D4E901211BF8050058
:1006900090476D1C4D45F7D308F10100B0428046EC
:1006A000E4DB206A384420622046FFF7ECFEBDE818
:1006B000FF9F00006E3300002DE9F0418046D21DFF
:1006C00022F007020025D2E90002F52915A614D070
:1006D000011E72F1000106DA0023D0EB030063EB88
:1006E000020211A608E0D8F800108B0701D50FA66A
:1006F00002E0490701D50EA601251146002408F1A4
:10070000240704E000F05CF930323A55641C50EAEA
:100710000102F7D12B46324621464046BDE8F04162
:1007200000F093B9000000002D0000002B00000035
:100730002000000030B4002100F1240408E002F0A1
:100740000705D208303542EA4372DB086554491C7C
:1007500052EA0305F3D10468002310A2250708D547
:1007600004F020040C4304D0C46901230CA2641ECD
:10077000C46130BC00F069B910B504462146106868
:10078000FFF79BFE02462046BDE810400023D1E75C
:10079000D21D22F00701D1E90023CBE700000000C1
:1007A00030000000F0B40D460188090502D5214C47
:1007B0007C4402E01F4C7C440E34002100F12406EE
:1007C00008E002F00F071209E75D42EA03721B0915
:1007D0007754491C52EA0307F3D102780023120729
:1007E00004D5702D06D009B1022311342246F0BC85
:1007F00000F02BB901231034F8E770B504460D461C
:1008000021461068FFF759FE024629462046BDE8FA
:1008100070400023C6E7D21D22F00703D3E900236E
:10082000C0E70368126843F0200303600823C36134
:100830000023B7E7D03100002DE9F05F8946044678
:100840004FF0000ADFF874B1FB44C0F820A0204646
:10085000E1688847002874D0252806D0D4E9012112
:100860009047206A401C2062F1E700265F46204640
:10087000E16888472028054607DB312D05D2781925
:1008800010F8200C08B10643F1E7B00701D526F0B7
:100890000406C4F81CA00027C4F818A02A2D09D00B
:1008A000284603F033F838B304EB8708303DC8F826
:1008B000185019E059F8041B204604EB8702916197
:1008C000E1688847012F054618D1E069002820DA41
:1008D00026F020061DE0D8F8180000EB800005EB9C
:1008E00040003038C8F818002046E16888470546BF
:1008F00003F00CF80028EED1012F0AD02E2D08D1DC
:100900002046E16888477F1C0546022F46F02006F6
:10091000C4DBA069002803DA404246F00106A0616A
:10092000F00701D026F010066C2D0BD0682D09D0F1
:100930004C2D39D06A2D35D0742D35D07A2D33D049
:1009400016E038E0E1682F4620468847B842054661
:1009500009D16C2F26D04FF48060E1680643204611
:100960008847054604E06C2F1AD04FF48070064388
:100970000DB3A5F14100192802D8203546F40066D0
:100980004A462946204626604E46FFF7CBFC80B1FA
:1009900001280BD0F61D26F0070000F1080956E7E4
:1009A0004020E4E78020D8E70020D6E706F10409DC
:1009B0004DE7284652E7206ABDE8F09F603100000D
:1009C00030B5B0F10A0271F100034FEA900E4EEA21
:1009D000817EB0EB0E0061EB91014FEA101E4EEAF2
:1009E000017E10EB0E0041EB11114FEA102E4EEA82
:1009F000016E10EB0E0041EB11214FEA104E4EEA52
:100A0000014E10EB0E0041EB1141401841F1000185
:100A10004FEAD00040EA41704FEAD1014FEA810429
:100A200044EA907410EB800544EB01046D1944EB2B
:100A30000404521BA3414FF0000348BF0A3200D503
:100A400030BD401C41F1000130BD2DE9F0470D469D
:100A500099469246044600F124080168880604D5A8
:100A6000E06921F01001216000E00120A84201DDD1
:100A7000471B00E00027A1697A1902EB0900081A58
:100A8000A0612078C00602D42046FFF7E6FC0026CD
:100A900008E0D4E901211AF806009047206A401CBA
:100AA000761C20624E45F4DB2078C0060AD520462D
:100AB000FFF7D3FC06E0D4E9012130209047206AFB
:100AC000401C2062381EA7F10107F4DC07E0D4E9DE
:100AD000012118F805009047206A401C2062281E5A
:100AE000A5F10105F3DC2046FFF7CDFC20780006D8
:100AF00002D50220BDE8F0870120FBE72DE9FF4F7A
:100B00000C461E464FF0FF378BB0D2E90001DDF8EE
:100B100060800A908A46C1F30A5505B93D46002116
:100B200008464FF00000BAF1000F00F4400005DA6B
:100B300000EB80004FF4400101EA50004FEA905969
:100B4000B9F1010F00DDB9460A9850EA4A000ED00B
:100B500044F61050A5F2FF3545432F14B8F1000FAD
:100B60001ED07542291E1EDDC9F100021CE0B8F13D
:100B7000010F4FF0000001D0302103E0F24305E007
:100B80002154401CB042FBDB30460022002121549E
:100B90000B99C1F80880C1E900200FB0BDE8F08FC3
:100BA000BD1B6D1CDEE74A4600DA694206A800F06C
:100BB000F3FB06AB93E8070003AB83E8070050465E
:100BC0000A9902F0C6FA8DE80700A0F500501F3818
:100BD00000900398002D0ADD42F21F014A460844A6
:100BE000002303A90390684602F030FD09E0A0F558
:100BF00000504A461F38002303A90390684602F0BC
:100C00003AFD8DE807000004000C03D04FF0FF30E0
:100C1000410800E01046B8F1000F03D00022009216
:100C200015461EE0751E05D4FFF7CAFE3032625528
:100C30006D1EF9D5B3460122084302D000227F1C65
:100C400004E02078302801D100227F1E002A099775
:100C500084D01DE0112D07DAFFF7B2FE3032625565
:100C60006D1C50EA0102F5D1084302D00098C8B1CA
:100C70000EE00021681E05E0235C625C6354225490
:100C8000401E491C8142F7DBAB46A81B401E099061
:100C9000002004F80B000B98099AC0F80880C0E9FE
:100CA000002B7AE711264FF0000857E72DE9F04FA7
:100CB00088460446D21D22F0070191B0D1E9000117
:100CC000CDE90A0102F00EFE02460B98C00F01D0DA
:100CD0002D2007E02068810701D52B2002E020218C
:100CE00001EAC000032A099001D0072A05DB034668
:100CF0004146204600F010FB0BE12078800601D52C
:100D0000E06900E00620B8F1650F814606D0B8F131
:100D1000660F18D0B8F1670F70D131E00020B9F13B
:100D2000110F009001DB112301E009F101030AAA70
:100D300001A90CA8FFF7E2FEDDE90C70002609F11D
:100D40000105834647E001204B4600904FF00047E5
:100D50000AAA01A90CA8FFF7D1FEDDE90DB00C9994
:100D60005D46002610B909F101000D18B9EB050028
:100D700003D4C0F1FF3609F10105A5EB09002BE012
:100D8000B9F1010F01DA4FF001090020B9F1110F9B
:100D90000090484601DD112300E003460AAA01A99C
:100DA0000CA8FFF7ABFEDDE90C704D46002683462C
:100DB000207800070AD4AB4500DA5D4601A8012D72
:100DC00004DD411911F8011C302907D04F4502DA22
:100DD00017F1040F04DA012082460FE06D1EEEE7E2
:100DE000002F02DCED1B3E4403E0781CA84200DD2E
:100DF0007D1CB81B00F1010A4FF000472078000766
:100E000003D4AA4501DB4FF0FF3A0021B7F1004FB0
:100E10000DF143088DF8431024D002202B23002F1E
:100E200001DA7F422D230A21021EA0F1010000DC1D
:100E30005FB197FBF1FC97FBF1F201FB1C7C1746BD
:100E40000CF1300C08F801CDEEE7A8F101000370B9
:100E50002188090501D5452100E06521A0F101089F
:100E600000F8011C09980FA9A1EB0807FF1D00B1AC
:100E70000120411901EBEA70A1693844081A401EAB
:100E8000A0612078C00602D42046FFF7E6FA099850
:100E900028B1D4E901219047206A401C20622078C3
:100EA000C00622D52046FFF7D8FA1EE0002E04DB4C
:100EB000B34502DD01A8805D00E03020D4E90121C6
:100EC0009047206A401C2062761CAAF101005FEA6C
:100ED000000A0AD100F01CFAC0680168405CD4E93D
:100EE00001219047206A401C2062281EA5F10105BF
:100EF000DCDC07E0D4E9012118F8010B9047206AF7
:100F0000401C2062381EA7F10107F3DC2046FFF7E2
:100F1000BAFA032011B041E62DE9F04F04460D4620
:100F2000D21D22F0070089B0D0E900974846394623
:100F300002F0D8FC0246F80F01D02D2307E020680C
:100F4000810701D52B2302E0202101EAC0038DF89F
:100F500020300BB1012000E00020032A824601D09E
:100F6000072A04DB2946204600F0D6F93FE1207825
:100F7000800601D40D2500E0E569C7F30A560D2D62
:100F800049DA00214FEA175B08464FF00000002FB6
:100F900000F4400007DA00EB80004FF4400100EB62
:100FA000D07001EA60008115012901DD4FF0FF31A9
:100FB00000224FEA850CBCF1180F06D31346ACF1A2
:100FC00018004FF08052C24003E04FF4801323FA20
:100FD0000CF30CF10C0CBCF1200F04D3ACF1200C81
:100FE00009FA0CF001E007FA0CF000294FF0004874
:100FF00001DD18B90FE00ED140450CD319EB020901
:101000005F4121B9404502D19F4329EA0209BBEB68
:10101000175F00D0761C2088000502D57B487844F5
:1010200002E07A487844193808AA302302F80A30D6
:10103000037C0AF10101002E0AF1020A53546A46A8
:1010400002DC4FF0300101E04FF031014FF00108B8
:101050008DF8001002D0A6F2FF3603E059EA4701EE
:1010600000D06B4E002D02DC2178090704D54FF02B
:1010700002082E218DF80110C44600210BE0C7F3B1
:1010800003433F01C35C491C6D1E02F8083005296B
:1010900008F1010801DA002DF1DC00210CE000EB81
:1010A0001973491C1B786D1E082902F808304FEA95
:1010B000091908F1010801DA002DF0DC21688B061E
:1010C00002D516E0A8F10108E04505DD02EB0803B2
:1010D00013F8013C302BF5D0B8F1000F09DD02EB1D
:1010E000080313F8013C2E2B03D1090701D4A8F102
:1010F0000108002D05DD3E2102F808106D1E08F1E3
:101100000108407C002E02F8080008F1010804DA0A
:101110002D20764202F8080002E02B2002F8080099
:101120000A214FF47A70864208F101080BDB96FB26
:10113000F0F3303302F8083096FBF0F308F10108C1
:1011400000FB136601E0642E0CDB642096FBF0F3D9
:10115000303302F8083096FBF0F308F1010800FB89
:10116000136601E00A2E06DB96FBF1F0303002F840
:10117000080008F1010896FBF1F001FB1060303027
:1011800002F80800A16908F1010808EB050202EB6A
:101190000A00081AA0612078C00602D42046FFF792
:1011A0005CF9216A08AE01EB0A00206204E0D4E990
:1011B000012116F8010B9047BAF1010AF7D2207805
:1011C000C00602D52046FFF748F96E4609E016F83A
:1011D000010B3E280FD0D4E901219047206A401C22
:1011E0002062B8F10108F2D22046FFF74CF909B0AD
:1011F0000320BDE8F08F206A2844206203E0D4E990
:101200000121302090476D1EEBD3F8E7AE29000096
:1012100002FCFFFF10B5436913B1AFF3008001E09A
:10122000FFF754F9012010BD127800F124010A7073
:1012300000224A700122EDE711684FF0FF32E9E722
:1012400010B5436913B1AFF3008001E0FFF7D6F9A1
:10125000012010BD128800F1240182840022C28482
:101260000122EDE711684FF0FF32E9E72DE9F04187
:1012700016460C46054600F043F8036893F8010152
:10128000012807D0FF2C12D8185D80B101202C70E6
:10129000BDE8F081D3F807013246214603F2071377
:1012A000C7182846BC46BDE8F041002360474FF010
:1012B000FF30EDE7754600F0EBF8AE4605006946F5
:1012C000534620F00700854618B020B5FFF7A1F877
:1012D000BDE820404FF000064FF000074FF0000837
:1012E0004FF0000BAC46ACE8C009ACE8C009ACE874
:1012F000C009ACE8C00921F007018D467047000025
:1013000010B500F005F8001D10BD00BF3D2600001F
:1013100000487047280000202DE9F0411F46044690
:1013200003260168072A01F4006004DB08B116A552
:1013300005E016A503E008B115A500E015A521F00C
:1013400010002060A069C01EA0610FB1401EA06106
:101350002046FFF782F84FB1D4E901213846904783
:10136000206A401C2062C01C206206E0206AFAE766
:10137000D4E9012115F8010B9047761EF8D22046DA
:10138000FFF781F8BDE8F0814E414E006E616E00BE
:10139000494E4600696E66002DE9F04781461646C3
:1013A0008AB0354878440DC88DE80D00324878443D
:1013B000801C03AC0DC884E80D0041F69B30084446
:1013C000372190FBF1F290FBF1F5A5F1800501FBCF
:1013D00012041B3C02D56442012000E00020DFF82B
:1013E00098A080460027FA44AAF1BE0A0EE0E00762
:1013F0000AD03246684607EB470101230AEB810118
:1014000002F039F98DE8070064107F1C002CEED142
:10141000194F7F44AE3F19E0E80715D007EB0410E1
:101420000DF1180A90E80E008AE80E00C068F0423C
:1014300001D1981908903246012306A903A802F0A9
:101440001AF903AB83E807006D10641C002DE3D18B
:101450004FF0010332466946B8F1000F03A802D0ED
:1014600002F0F4F801E002F006F9C9E90001C9F858
:1014700008200AB0BDE8F087B826000010B5044681
:10148000AFF300802046BDE81040FEF7AEBF00007D
:10149000004870470800002030B44FF0013C50F87D
:1014A000042B51F8043BCCFA52F4D51A20D1FCB9E4
:1014B00050F8042B51F8043BCCFA52F4D51A17D14A
:1014C000B4B950F8042B51F8043BCCFA52F4D51AB5
:1014D0000ED16CB950F8042B51F8043BCCFA52F4FD
:1014E000D51A05D1002CDAD030BC4FF0000070477F
:1014F00029BAB1FA81F111F01801D1F1200084402C
:10150000F2D1CA40CB4012F0FF0213F0FF0330BC0F
:10151000D01A704701491820ABBEFEE72600020032
:101520007047000081B00020ADF8020049F22801A8
:10153000C4F2030108200860FFE749F20400C4F286
:10154000030000680007002801D4FFE7F5E749F22F
:10155000A800C4F2030000686FF31F30ADF802006A
:1015600049F20C01C4F2030108200860BDF8020032
:1015700001B0704781B04EF23860C4F20F000168CC
:1015800041F0020101604EF20862C4F20F021168DC
:1015900041F0100111604EF20811C4F20F01096808
:1015A00000910068009044F20041C4F20201086812
:1015B00020F02000086044F22041C4F202010868D3
:1015C00040F02000086044F21C51C4F20201086897
:1015D00020F02000086044F22851C4F2020108689B
:1015E00040F02000086049F6C471C4F203010868A5
:1015F00020F00F000860086840F00100086049F220
:101600002001C4F2030140F22310086049F20001F6
:10161000C4F20301086820F00800086049F21402CF
:10162000C4F20302106820F47040106049F2A00276
:10163000C4F203021068082363F30300106049F248
:10164000A402C4F203020620106049F20802C4F2A8
:101650000302106820F008001060086840F00800DD
:10166000086001B07047000081B0ADF802008DF84D
:10167000011000208DF80000BDF802009DF8011057
:10168000484340F60101C0F28001A0FB0110C008F0
:101690008DF800009DF8000001B070474EF208116F
:1016A000C4F20F01086840F008000860FFE74EF23E
:1016B0000810C4F20F00006800F00800082801D0EC
:1016C000FFE7F4E747F22851C4F20001086820F070
:1016D0000F00086047F22C51C4F2000108684FF671
:1016E000FF729043086047F20041C4F200010868AD
:1016F00040F00F00086047F22041C4F20001086882
:1017000020F00F00086047F21C51C4F20001086885
:1017100040F00F000860704781B08DF803009DF81D
:10172000030047F23C01C4F20001086001B07047B9
:1017300082B00190FFE7019888B1FFE741F61440BD
:10174000C0F201000090FFE7009820B1FFE7009889
:1017500001380090F8E7019801380190EBE702B0FA
:101760007047000080B582B040F2EA20C2F200006B
:101770000078C00708B9FFE769E000F097FF002094
:101780008DF80700FFE79DF8070040F20101C2F263
:1017900000010978884227DAFFE79DF8070000EB8F
:1017A000400140F27800C2F2000000EB8100007AB4
:1017B000C00790B1FFE79DF8070000EB400140F241
:1017C0007800C2F2000000EB810210F8210051788D
:1017D0005268002301F09CF8FFE7FFE79DF807003F
:1017E00001308DF80700CEE740F2C002C2F20002DD
:1017F000107851785268002301F08AF840F26800AE
:10180000C2F20000007AC00758B1FFE740F2680258
:10181000C2F20002107851785268002301F078F883
:10182000FFE740F2C420C2F20000007AC00758B1BE
:10183000FFE740F2C422C2F20002107851785268E9
:10184000002301F065F8FFE700F048FFFFE702B072
:1018500080BD000080B588B040F2EC20C2F20000EC
:10186000028846F28801C0F2000103A80290FEF748
:10187000DBFDFEF7C1FD47F2FC31C4F200010020A0
:101880000190086000F0F8FE0198012101F044F990
:1018900046F2AC00C0F2000001F028F801980221E5
:1018A00001F03AF946F27400C0F2000001F01EF8AF
:1018B0000198032101F030F946F29100C0F20000D6
:1018C00001F014F80198042101F026F9029801F0C2
:1018D0000DF8FEF793FD01F0F3FA08B080BD0000AB
:1018E00080B50A20FFF724FF45F21440C4F202003D
:1018F0000068C006002810D5FFE745F21C41C4F27D
:1019000002011020086040F2EF21C2F200010878C5
:10191000B0FA80F040090870FFE745F21440C4F2C5
:1019200002000068C00760B1FFE745F21C41C4F245
:1019300002010120086040F2EA21C2F200010870B1
:10194000FFE780BD80B582B040F2F021C2F2000115
:101950000020087040F2EA21C2F200010120087064
:1019600040F2EE20C2F200000078C00768B1FFE745
:1019700040F2EC21C2F200010020088040F2000198
:10198000C2F2000101200870FFE740F20000C2F23D
:1019900000000078012807D1FFE740F20101C2F200
:1019A0000001032008701FE040F20000C2F20000B6
:1019B0000078022807D1FFE740F20101C2F20001DE
:1019C000042008700FE040F20000C2F2000000782E
:1019D000032807D1FFE740F20101C2F20001052010
:1019E0000870FFE7FFE7FFE700208DF80700FFE73B
:1019F0009DF8070040F20101C2F200010978884217
:101A000080F28F80FFE79DF8070000EB400240F274
:101A10007801C2F20001002001F822009DF8073091
:101A200003EB830C0A2202EB4C0203EB430301EBB2
:101A300083035A709DF8073045F25652C5F255524D
:101A4000A3FB02C202EB42029A1A43F6CA5EC0F23C
:101A5000000E4FF0C80C12FB0CE203EB430301EB4A
:101A600083035A609DF8072002EB420201EB8201DA
:101A700008729DF8072040F2E021C2F2000188546C
:101A800040F20000C2F200000078032827D1FFE7EF
:101A90009DF80700C00730B9FFE79DF8070000EB8D
:101AA0008000009005E09DF80700C0EB001000905A
:101AB000FFE700989DF8072040F2D621C2F200010E
:101AC00021F812009DF80720D1070120002908BF46
:101AD000022040F2E521C2F2000188541AE09DF88C
:101AE000073040F20000C2F2000002780A21012A09
:101AF00008BF1421594340F2D622C2F2000222F854
:101B0000131000789DF8072040F2E521C2F2000191
:101B10008854FFE7FFE79DF8070001308DF80700C4
:101B200066E740F2C000C2F200002A2101702F21B6
:101B3000417043F6F341C0F200014160012101729E
:101B4000017840F26802C2F2000211704078083059
:101B5000507043F65840C0F20000506000201072F0
:101B6000137840F2C421C2F200010B7052784A701F
:101B7000087202B080BD000080B588B0FFF7D2FCCB
:101B8000ADF81C00BDF81C005421FFF76DFD8DF869
:101B90001B009DF81B00B0F1FF3F04DCFFE70020B5
:101BA0008DF81B0016E09DF81B0043F6F341C0F2D0
:101BB0000001897CC1F1540188420ADDFFE743F648
:101BC000F340C0F20000807CC0F154008DF81B008F
:101BD000FFE7FFE79DF81B0040F2C001C2F20001E1
:101BE000087040F2EF20C2F20000007810B3FFE767
:101BF00040F26800C2F20000007AC007D0B9FFE7E7
:101C000040F2C000C2F20000017801F1080240F287
:101C10006801C2F200010A7040780738487001205C
:101C2000087240F2EF21C2F200010020087001F0BA
:101C300059F8FFE701208DF81A008DF819000020EF
:101C40008DF81F00FFE79DF81F0040F20101C2F26E
:101C500000010978884280F20082FFE79DF81F109A
:101C600040F2E020C2F20000405CC007002840F0D3
:101C7000C480FFE740F20000C2F2000000780328B1
:101C800040F08C80FFE79DF81F0003280ADCFFE787
:101C90009DF81F2040F2D621C2F20001002021F859
:101CA00012007AE040F2B800C2F200000078C007EB
:101CB00068B9FFE79DF81F2040F2D621C2F200016B
:101CC000012021F8120000208DF81A00BFE19DF8D4
:101CD0001F0040F20101C2F2000109780139884277
:101CE00059D1FFE740F2B900C2F200000078C00706
:101CF000002850D1FFE700208DF8180004208DF84F
:101D00001700FFE79DF8170040F20101C2F2000141
:101D10000978013988421BDAFFE79DF8170000EBCC
:101D2000400140F27800C2F2000000EB8100007A2E
:101D3000C00730B1FFE79DF8180001308DF818009A
:101D4000FFE7FFE79DF8170001308DF81700D9E78E
:101D50009DF81800012810DCFFE79DF81F2040F2D5
:101D6000D621C2F20001002021F8120040F2B90190
:101D7000C2F20001012008700CE09DF81F2040F223
:101D8000D621C2F20001012021F8120000208DF8B6
:101D90001A005CE1FFE7FFE7FFE7FFE79DF81F1090
:101DA00040F2D620C2F2000030F8110001280FDB0B
:101DB000FFE79DF81F2040F2D621C2F2000131F862
:101DC0001200013821F8120000208DF81A0013E0EB
:101DD0009DF81F0000EB400140F27800C2F20000C5
:101DE00000EB8101012008729DF81F2040F2E021E4
:101DF000C2F200018854FFE7FFE79DF81F0000EBE7
:101E0000400140F27800C2F2000000EB8100007A4D
:101E1000C007002800F01A81FFE700208DF81900A4
:101E200040F20000C2F200000078032840F08A80EF
:101E3000FFE79DF81F0003280EDCFFE79DF81F0059
:101E400000EB400240F27801C2F2000111F82200DA
:101E5000013001F8220074E09DF81F0040F20101FA
:101E6000C2F200010978013988425BD1FFE79DF891
:101E70001F0000EB400140F27800C2F2000010F8B1
:101E8000212000212A2AC8BF03218DF816109DF8B1
:101E900016109DF81F2002EB420210F82230194460
:101EA000043100F822109DF81F1001EB410110F8D9
:101EB000210049F69812C1F699124CF6CD41CCF6A4
:101EC000CC4100FB01204FEAB0004CF6CC41C0F6FB
:101ED000CC41884225D8FFE79DF81F0000EB400267
:101EE00040F27800C2F2000000EB820110F82200FC
:101EF00049F69813C1F699134CF6CD42CCF6CC4274
:101F000000FB02304FEAF00046F26763C0F26663FE
:101F10006FF00102984238BF02224878104448709E
:101F2000FFE70DE09DF81F0000EB400240F2780152
:101F3000C2F2000111F82200023001F82200FFE78E
:101F4000FFE712E09DF81F0040F2E521C2F2000118
:101F50000B5C00EB400240F27801C2F2000111F884
:101F60002200184401F82200FFE79DF81F1001EB42
:101F7000410240F27800C2F2000000EB82004068AB
:101F800045F25652C5F25552A1FB023202EB420213
:101F9000891A43F6CA53C0F20003C82211FB02316A
:101FA00088421CD1FFE79DF81F1045F25650C5F23C
:101FB0005550A1FB002000EB4000081A44F2220318
:101FC000C0F20003C82210FB023001EB410240F2D4
:101FD0007801C2F2000101EB820148601BE09DF82C
:101FE0001F1045F25650C5F25550A1FB002000EBE2
:101FF0004000081A43F6CA53C0F20003C82210FB7F
:10200000023001EB410240F27801C2F2000101EB23
:1020100082014860FFE79DF81F0000EB400140F29D
:102020007800C2F2000010F8210042280DDBFFE723
:102030009DF81F0000EB400140F27800C2F2000062
:1020400000EB810100200872FFE7FFE7FFE79DF842
:102050001F0001308DF81F00F5E540F20000C2F2CC
:1020600000000078032866D1FFE740F2B800C2F212
:1020700000000078C00700285DD1FFE701208DF83F
:10208000150000208DF81F00FFE79DF81F000328B2
:1020900023DCFFE79DF81F0000EB400140F27800D1
:1020A000C2F2000000EB8100007AC00750B9FFE7E0
:1020B0009DF81F1040F2E020C2F20000405CC00713
:1020C00020B9FFE700208DF8150006E0FFE79DF836
:1020D0001F0001308DF81F00D7E79DF81500C007DD
:1020E00040B3FFE740F2B801C2F2000101200870DE
:1020F00004208DF81F00FFE79DF81F0040F201014A
:10210000C2F2000109780139884212DAFFE79DF82E
:102110001F20C2EB02103C3840F2D621C2F200016F
:1021200021F81200FFE79DF81F0001308DF81F0015
:10213000E2E7FFE7FFE740F26800C2F20000007A42
:10214000C007002800F0E480FFE700208DF81F00A2
:10215000FFE79DF81F0040F20101C2F2000109787B
:10216000884280F2B480FFE79DF81F0000EB400139
:1021700040F27800C2F2000000EB8100007AC00754
:10218000002800F09D80FFE740F26800C2F20000E6
:10219000007802309DF81F1001EB410240F27801F7
:1021A000C2F2000111F822108842C0F28980FFE7D4
:1021B00040F26800C2F2000000789DF81F1001EBA9
:1021C000410240F27801C2F2000111F822101031F0
:1021D000884275DCFFE740F26800C2F200004078F8
:1021E00009309DF81F1001EB410240F27801C2F264
:1021F000000101EB82014978884261DBFFE740F290
:102200006800C2F2000040789DF81F1001EB410207
:1022100040F27801C2F2000101EB820149780A31F3
:1022200088424DDCFFE79DF81F0000EB400040F2C4
:102230007801C2F2000101EB8002002010729DF8CB
:102240001F2002EB420211F8223040F2C422C2F2F7
:10225000000213709DF81F3003EB430301EB830171
:10226000497851700121117240F26801C2F20001F7
:10227000087240F20001C2F20001097803290490BB
:102280000ED1FFE79DF81F0040F20101C2F20001EC
:102290000978401A0130B0FA80F040090490FFE755
:1022A0000498C0070122002818BF052240F2EC2143
:1022B000C2F2000108881044088000F0E3FC06E048
:1022C000FFE79DF81F0001308DF81F0041E740F245
:1022D0006800C2F20000007AC007C0B1FFE740F218
:1022E0006800C2F200004078032808DBFFE740F2F4
:1022F0006801C2F2000148780338487006E040F2F5
:102300006801C2F2000100200872FFE7FFE7FFE763
:1023100040F2C420C2F20000007AC00708B3FFE711
:1023200040F2D420C2F2000001780131017040F285
:10233000C422C2F2000244F27A21C0F200015160CC
:10234000007803280CDBFFE740F2C421C2F2000151
:102350000020087240F2D421C2F200010870FFE7A9
:10236000FFE79DF81A00C007002800F08281FFE710
:102370009DF81900C007002800F07B81FFE740F2BC
:102380000000C2F20000007801287ED1FFE740F291
:102390000001C2F200010220087040F20101C2F205
:1023A00000010420087000208DF81F00FFE79DF851
:1023B0001F0040F20101C2F20001097888423FDAB1
:1023C000FFE79DF81F0000EB400240F27801C2F2E7
:1023D0000001002001F822009DF81F3003EB830C60
:1023E0000A2202EB4C0203EB430301EB83035A7016
:1023F0009DF81F2002EB420201EB820108729DF85A
:102400001F2040F2E021C2F2000188549DF81F20F5
:1024100002EB8200400040F2D621C2F2000121F816
:1024200012009DF81F2040F2E521C2F200010220B7
:102430008854FFE79DF81F0001308DF81F00B6E7B4
:1024400000F034F940F20000C2F2000000780228E7
:102450001AD1FFE700200390012100F05DFB46F256
:102460009C00C0F2000000F041FA0398022100F045
:1024700053FB46F26200C0F2000000F037FA00F0B1
:102480001FFD00F02BF9FFE7F2E040F20000C2F27E
:1024900000000078022840F0DD80FFE740F20001F4
:1024A000C2F200010320087040F20101C2F20001F3
:1024B0000520087040F2B801C2F200010020087047
:1024C00040F2B901C2F2000108708DF81F00FFE769
:1024D0009DF81F0040F20101C2F200010978884214
:1024E00080F29380FFE79DF81F00022818DCFFE7C9
:1024F0009DF81F0000EB400040F27801C2F200019D
:1025000001EB8002142050709DF81F2002EB820323
:102510000A2000EB830002EB420201F822002FE0C8
:102520009DF81F00032813D1FFE79DF81F0000EB63
:10253000400040F27801C2F2000101EB80021E204F
:1025400050709DF81F2002EB420201F8220016E0B5
:102550009DF81F106FF0150000EBC10001EB410268
:1025600040F27801C2F2000101EB820250709DF846
:102570001F0000EB4002002001F82200FFE7FFE708
:102580009DF81F0000EB400140F27800C2F200000D
:1025900000EB8101002008729DF81F2040F2E0212D
:1025A000C2F2000188549DF81F204FF47A70042A6B
:1025B000B8BF002040F2D621C2F2000121F812007B
:1025C0009DF81F0040F20101C2F2000109780139B3
:1025D000884203D1FFE70420029007E09DF81F1016
:1025E00002200429B8BF01200290FFE702989DF85D
:1025F0001F2040F2E521C2F200018854FFE79DF858
:102600001F0001308DF81F0062E700F04FF840F224
:102610000000C2F20000007803281AD1FFE7002072
:102620000190012100F078FA46F29C00C0F200000F
:1026300000F05CF90198022100F06EFA46F26B009E
:10264000C0F2000000F052F900F03AFC00F046F849
:10265000FFE70CE040F2EA21C2F20001002008701E
:1026600040F2EE21C2F2000101200870FFE7FFE70F
:10267000FFE708B080BD000080B582B00020019067
:10268000FFE70198B0F5FC7F09DAFFE701200021A0
:1026900000F0C2FCFFE7019801300190F1E7002152
:1026A000084600F039FA02B080BD000081B0002079
:1026B0000090FFE70098B0F5FC7F0CDAFFE7009A86
:1026C00040F2CC01C2F2000100208854FFE70098DC
:1026D00001300090EEE701B07047000080B540F295
:1026E000CC00C2F2000000F001F880BD80B584B0DB
:1026F000039000210191084600F00EFA0198029023
:10270000FFE70298B0F5FC7F0BDAFFE70398029928
:102710004156012000F080FCFFE702980130029052
:10272000EFE704B080BD000080B582B04EF21C61BE
:10273000C4F20F01086840F0040008604EF208611E
:10274000C4F20F01086840F0020008604EF2081061
:10275000C4F20F000068019045F20041C4F200018C
:10276000086840F00C00086045F22041C4F2000106
:10277000086840F0B0000860086820F00C000860AD
:1027800045F21C51C4F20001086840F0BC0008602A
:1027900045F22C51C4F2000108684FF6FF72C0F6F2
:1027A000007210400022C2F2220210430860086842
:1027B00020F47F40086045F22851C4F20001086807
:1027C00020F0BC0008604AF20401C4F2000108686D
:1027D00020F002000860086820F0040008604AF653
:1027E000C872C4F20002106820F00F0010604AF2B4
:1027F0001002C4F200021068102363F30700106097
:102800004AF20002C4F2000210684FF6C073984307
:102810001060106820F0300010601068072363F328
:1028200003001060086840F00200086045F22001D3
:10283000C4F20001002008600190FFE70198092818
:1028400005D8FFE7FFE7019801300190F6E745F270
:102850002001C4F20001082008600020009021211E
:1028600000F0DAFB00986FF0460100F0D5FB00980D
:10287000042100F0D1FB0098142100F0CDFB00985A
:10288000202100F0C9FB00980C2100F0C5FB02B02C
:1028900080BD000080B584B08DF80F0001200021BC
:1028A000019100F0B9FB01980290FFE7029804281B
:1028B00015DCFFE79DF80F0000EB800043F6782160
:1028C000C0F2000108440299084410F9A01C01203C
:1028D00000F0A2FBFFE7029801300290E6E701203A
:1028E000002100F099FB04B080BD000080B582B0EB
:1028F0000190FFE70198007840B1FFE70198007868
:10290000FFF7C8FF019801300190F3E702B080BDE6
:102910008AB08DF827008DF8261008928DF81F30A8
:102920000898807C06900898807D0590059801287D
:102930001BDBFFE7069800EBD07121F00101401A84
:1029400098B9FFE79DF827000699084454280CDC45
:10295000FFE79DF8260005990139884205DBFFE76E
:102960009DF82600312801DBFFE7D2E09DF81F002B
:102970000F2804DBFFE70E208DF81F00FFE79DF80E
:102980002600C008ADF808009DF82720BDF8080013
:10299000542100FB0120ADF80A009DF8260000F04C
:1029A00007008DF807009DF80710012000FA01F1DB
:1029B0008DF807100899897A03910490FFE704982D
:1029C0000699059A514301EBD171B0EB610F00F309
:1029D000A080FFE708980399415C9DF81F00B0EBC9
:1029E000111F0CDAFFE79DF80730BDF80A2040F20E
:1029F000CC01C2F20001885C184388540BE09DF8BA
:102A00000730BDF80A2040F2CC01C2F20001885C18
:102A100098438854FFE7BDF80A000130ADF80A007A
:102A200008980399405C00F00F009DF81F10884241
:102A30000CDDFFE79DF80730BDF80A2040F2CC011D
:102A4000C2F20001885C184388540BE09DF80730FF
:102A5000BDF80A2040F2CC01C2F20001885C984324
:102A60008854FFE7BDF80A000130ADF80A0003986A
:102A700001300390049A069800EBD070411092FB4D
:102A8000F1F000FB112000283ED1FFE79DF8070080
:102A9000022806DBFFE79DF8070040088DF80700D5
:102AA00008E080208DF80700BDF808000138ADF877
:102AB0000800FFE79DF82720BDF80800542100FB1F
:102AC0000120ADF80A00069800EBD071481000EB29
:102AD000907020F00300C0EB6100014600910328D4
:102AE00011D80099DFE801F00203070B0BE003980F
:102AF0000330039007E003980230039003E003984B
:102B000001300390FFE7FFE7FFE7049801300490EE
:102B100055E70AB07047000080B582B08DF8070015
:102B20008DF806109DF807000B2805DCFFE79DF8DF
:102B30000600062801DBFFE713E09DF80700C0EB65
:102B4000C00040F0800041B20020009000F064FA24
:102B500000989DF8061041F0400149B200F05CFA7F
:102B6000FFE702B080BD000081B04EF27001C4F2F8
:102B70000F010091086840F000400860086840F4C8
:102B8000006008604EF26002C4F20F02106820F488
:102B9000F8601060106800F5A8601060086820F008
:102BA0007000086008680860086820F40050086039
:102BB000086840F0804008600868042262F39C5076
:102BC0000860FFE74EF25000C4F20F0000684006B4
:102BD000002801D4FFE7F5E74EF27001C4F20F01BF
:102BE000086820F40060086001B0704780B582B0CA
:102BF00040F27400C2F200000068D8B1FFE740F272
:102C0000D020C2F20000006840F2B401C2F200011C
:102C100001910968405C0009FEF77EFD0199086892
:102C20000130086040F27401C2F200010868013806
:102C300008600DE04EF28011CEF200014FF400105A
:102C4000086041F20C01C4F2030100200860FFE7B4
:102C500002B080BD80B5FEF721FD42F6ED30C0F236
:102C6000000041F6584100F087F940F2B401C2F289
:102C700000010020086040F27401C2F20001086007
:102C800080BD000080B544F24130C0F2000040F643
:102C9000315100F001F880BD82B00190009101989F
:102CA00040F2D021C2F20001086040F2B401C2F249
:102CB000000100200860009840F27401C2F2000197
:102CC00008604EF20011CEF20001086840F40010D6
:102CD000086041F20C01C4F203010120086002B057
:102CE0007047000080B545F27200C0F200004FF45A
:102CF0007F61FFF7D1FF80BD80B582B0FFF7BCFCDC
:102D0000002001900121FFF707FF46F28B00C0F27F
:102D10000000FFF7EBFD01980221FFF7FDFE46F2F0
:102D2000A400C0F20000FFF7E1FD01980321FFF7C6
:102D3000F3FE46F27E00C0F20000FFF7D7FD0198D7
:102D40000421FFF7E9FE46F2B600C0F20000FFF7EB
:102D5000CDFD02B080BD00004EF20811C4F20F019B
:102D6000086840F020000860FFE74EF20810C4F247
:102D70000F0000688006002801D4FFE7F5E745F260
:102D80002051C4F2020144F24B30C4F64F400860B7
:102D900045F22451C4F20201086840F011000860B5
:102DA00045F20041C4F20201086820F011000860F9
:102DB00045F22041C4F20201086820F011000860C9
:102DC00045F21C51C4F20201086840F0110008608D
:102DD00045F22C51C4F20201086820F00F1008607F
:102DE00045F22851C4F20201086820F01100086081
:102DF00045F21051C4F20201086840F01100086069
:102E000045F20441C4F20201086820F01100086094
:102E100045F20841C4F20201086820F01100086080
:102E200045F20C41C4F20201086840F0110008604C
:102E300045F21C41C4F202011120086045F2104124
:102E4000C4F20201086840F0110008604EF21C4113
:102E5000CEF200010868402262F3174008604EF28B
:102E60000011CEF20001086840F080400860704711
:102E700040F2F021C2F2000101200870704700000A
:102E80004EF21001CEF20001002008604EF2140351
:102E9000CEF2000341F2FF12C0F27A021A604EF243
:102EA0001802CEF2000210604EF62052CEF200025E
:102EB0001068022363F35F7010600720086070479A
:102EC00081B04EF21002CEF20002002010604EF2ED
:102ED0001403CEF2000341F2FF11C0F27A0119602F
:102EE0004EF21801CEF2000108604EF62053CEF2E9
:102EF000000319684FF0020C6CF35F711960072131
:102F000011600090FFE700981D2810DCFFE7FFE745
:102F10004EF21000CEF200000068C003002801D479
:102F2000FFE7F5E7FFE7009801300090EBE701B01D
:102F30007047000080B5FDF75FFAFFF715FEFEF75A
:102F4000ADFBFFF787FEFFF79BFFFFF705FFFEF7DF
:102F500011FBFFF7E9FBFDF751FA80BD80B541F2A7
:102F60002401C4F203010120086040F2BC00C2F257
:102F700000000068804780BD82B0019000914EF251
:102F80000461C4F20F01086840F002000860019873
:102F900040F2BC01C2F20001086041F20C01C4F22F
:102FA00003010020086041F20002C4F20302106035
:102FB00041F20403C4F2030302221A60009A013AA8
:102FC00041F22803C4F203031A6041F23802C4F24A
:102FD0000302106041F22402C4F2030201201060D7
:102FE00041F21802C4F2030210604EF21442CEF213
:102FF00000021068802363F3174010604EF2001245
:10300000CEF20002106840F400101060086840F032
:103010000100086002B0704780B582B08DF80700EB
:103020008DF80610FDF7E8F947F2FC31C4F2000113
:10303000002008609DF8070020BBFFE7FFE74AF289
:103040000C00C4F200000068C006002801D5FFE7AC
:10305000F5E745F21001C4F20001002008609DF977
:1030600006004AF20801C4F200010860FFE74AF2D4
:103070000C00C4F200000068C006002801D5FFE77C
:10308000F5E718E0FFE74AF20C00C4F20000006820
:103090008007002801D4FFE7F5E745F21001C4F2EC
:1030A0000001042008609DF906004AF20801C4F2FC
:1030B00000010860FFE700200090FFE70098022869
:1030C00005DCFFE7FFE7009801300090F6E745F2E6
:1030D0001001C4F2000104200860FDF78FF902B06E
:1030E00080BD000080B582B000200190FFF722FF74
:1030F000FFE7FFF701FEFFE740F2EA20C2F200001F
:103100000078C00708B9FFE7F6E7FEF71BFCFEF7FB
:1031100029FBFFE740F2EA20C2F200000078C00776
:10312000A0B1FFE740F2F020C2F200000078C00733
:1031300058B1FFE7FEF720FDFEF714FB40F2F02147
:10314000C2F2000100200870FFE7E3E7FEF782FB10
:10315000CFE75FEA400C08BF91F0000F4FEA8C23E5
:103160004FEAC12243EA51514FEA1C5018BF00F503
:10317000F0404FEA300018BF41F000415FEA6C5C5C
:1031800000F02980BCF1FF3F08BF40F0804070474D
:10319000130C06BF12044FF0100C4FF0000C130E6E
:1031A00004BF12020CF1080C130F04BF12010CF142
:1031B000040C930F04BF92000CF1020CD30F04BF58
:1031C00052000CF1010C11464FF00002A0F11F005B
:1031D000A0EB0C00704711F0004F08BF704731F0B2
:1031E00000413FF4D5AF0B0C06BF09044FF0100CA3
:1031F0004FF0000C0B0E04BF09020CF1080C0B0F72
:1032000004BF09010CF1040C8B0F04BF89000CF101
:10321000020CCB0F04BF49000CF1010CCCF12003D0
:1032200022FA03F341EA030102FA0CF2A0EB0C00CC
:1032300000F101007047000023F07F4720F07F4C31
:1032400080EA030000F00040ACEB070303F57C5379
:1032500003F1FF032DE9804909B44FEA144324EA3E
:1032600003484FEA154B25EA0B4E0FF2042606EBF6
:1032700013273E7803FB0667C7F5000707FB06F632
:103280004FEAD64606F102064FEA543707FB066CB2
:10329000CCF1005C4FEA1C472CEA074C0CFB06F50E
:1032A00007FB06F404EB15464FEA961649085FEA59
:1032B000320234BF00204FF000404FEAD13706FB06
:1032C00007FC4FEA1C4C0CFB0BF7D21B03FB0CF763
:1032D00061EB07010CFB0EF7B0EB074072EB1742F6
:1032E0000CFB08F734BFA2EB0742B2EB074261EBDD
:1032F00017414FEA0C444FEA910706FB07FC4FEADF
:103300001C4C0CFB0BF7B0EBC74072EB573203FBC6
:103310000CF734BFA2EBC742B2EBC74261EB5731A7
:103320000CFB0EF7B0EBC70072EB57720CFB08F703
:1033300034BFA2EBC702B2EBC70261EB57714FEA91
:10334000816141EA92114FEA826242EA90124FEAA9
:10335000806004EBCC04039F4FEAD13706FB07FCE7
:103360004FEA1C4C0CFB0BF7D21B03FB0CF761EB79
:1033700007010CFB0EF7B0EB074072EB17420CFB9A
:1033800008F734BFA2EB0742B2EB074261EB1741EB
:103390004FEA8C5504EB9C244FEA910706FB07FC8F
:1033A0004FEA1C4C0CFB0BF7B0EBC74072EB5732EB
:1033B00003FB0CF734BFA2EBC742B2EBC74261EB91
:1033C00057310CFB0EF7B0EBC70072EB57720CFBDA
:1033D00008F734BFA2EBC702B2EBC70261EB57712B
:1033E0004FEA816141EA92114FEA826242EA901209
:1033F0004FEA806015EB4C2544F100044FEAD137C9
:1034000006FB07FC4FEA1C4C0CFB0BF7D21B03FB23
:103410000CF761EB07010CFB0EF7B0EB074072EB0A
:1034200017420CFB08F734BFA2EB0742B2EB07428E
:1034300061EB17414FEA813141EA92414FEA823212
:1034400042EA90424FEA80304FEA0C7615EB1C15A9
:1034500044F1000448EA03434EEA0B484FF0000EE3
:10346000B2EB080C71EB030724BF624639464EEB02
:103470000E0E4FF0000B0018524149414BEB0B0B65
:10348000B2EB080C71EB03077BF1000B24BF624623
:1034900039464EEB0E0E4FF0000B001852414941D9
:1034A0004BEB0B0BB2EB080C71EB03077BF1000B42
:1034B00024BF624639464EEB0E0E51EA020718BF92
:1034C00046F0010616EB0E7655F1000254F10001AC
:1034D00003D5BDE88901BDE80088BDE88901BDE8E4
:1034E0000048B619524141EB0101A3F101037047B5
:1034F00080807F7E7D7C7B7A797877767675747331
:10350000727171706F6E6E6D6C6C6B6A6A696868EF
:10351000676666656464636362616160605F5F5E85
:103520005E5D5D5C5C5B5B5A5A59595858575756FB
:103530005655555554545353525252515150505060
:103540004F4F4F4E4E4D4D4D4C4C4C4B4B4B4A4AB2
:103550004A494949484848474747474646464545F6
:10356000454444444443434343424242424141412F
:103570009C46002B30D477002BD04FEA37071CB580
:1035800003B44FF010004FF01001BAF1000F06D055
:10359000BCF1000FDCBF40F0080040F008014FF024
:1035A00000000FBCBDE810400BF1010BBBF1010F97
:1035B00008BF5FEA170722BF12F1010211F10101F2
:1035C0004FF0004143F1000300F0004043EA0000E7
:1035D0007047F9D35708D0E746EA06464FEA164641
:1035E00013F1400F1FDD13F1200FDFBF16430A4612
:1035F000002120335B42BED0C3F1200746EA0646D5
:103600004FEA164602FA07F746EA070622FA03F2DD
:10361000C3F1200701FA07F742EA070221FA03F192
:103620004FF00003A7E746EA020646EA06464FEADD
:10363000164646EA0106BCBF46EA0646360C4FF07F
:1036400000034FF000024FF0000194E72DE9804C99
:1036500070B49A46934691E8380007C831EA400CA6
:1036600048BF34EA430C03D5FFF7E6FDFFF780FFC0
:10367000F0BCBDE8008C2DE9804C70B49A469346AE
:1036800091E8380007C810F0804F08BF13F0804F52
:1036900003D100F005F8FFF76BFFF0BCBDE8008C2C
:1036A00020F07F4723F07F4C80EA030000F00040C9
:1036B00007EB0C03A3F57C53A3F1FE0392F0000F7C
:1036C00000F0B38095F0000F00F077802DE90149FC
:1036D0004FEA114021EA00484FEA144624EA06471F
:1036E00000FB06FC08FB06F607FB08F818EB06488B
:1036F0004CEB164C00FB07F718EB07484CEB174058
:103700004FEA124B22EA0B4E4FEA154625EA0647CE
:103710000BFB06FC0EFB06F607FB0EFE1EEB064E31
:103720004CEB164C0BFB07F71EEB074E4CEB174B05
:1037300018EB0B0840F1000018EB0E0B58EB0008DB
:1037400040F100008F1A4FF000014FF000063CBF1F
:10375000C943661B14BFB5EB040C00213CBFC94331
:10376000F61B4FEA174427EA04454FEA1C472CEAA8
:10377000074C04FB076205FB07F70CFB05F616EB8D
:10378000074642EB174204FB0CFC16EB0C4642EBDF
:103790001C421BEB060658EB020241414EEA8E0E1C
:1037A00046EA9E0601D5BDE80189B619524141EBB2
:1037B0000101A3F10103BDE801894FEA144524EAA0
:1037C00005464FEA114721EA074C05FB07F406FBC3
:1037D00007F70CFB06F111EB074144EB174405FB1F
:1037E0000CFC11EB0C4144EB1C444FEA124722EA5B
:1037F000074C05FB07F206FB07F70CFB06F616EB7A
:10380000074642EB174205FB0CFC16EB0C4642EB5D
:103810001C456A1854F1000148BF7047B61952415F
:1038200041EB0101A3F10103704795F0000F37D080
:103830004FEA114221EA02464FEA144724EA074CB4
:1038400002FB07F106FB07F70CFB06F414EB074439
:1038500041EB174102FB0CFC14EB0C4441EB1C4107
:103860004FEA154725EA074C02FB07F506FB07F769
:103870000CFB06F616EB074645EB174502FB0CFC66
:1038800016EB0C4645EB1C42121951F1000148BFE2
:103890007047B619524141EB0101A3F10103704792
:1038A0004FEA144524EA05464FEA114721EA074C3E
:1038B00005FB07F106FB07F70CFB06F212EB0742CC
:1038C00041EB174105FB0CFC12EB0C4251EB1C4188
:1038D0004FF0000648BF7047921841EB0101A3F179
:1038E00001037047490050EAC12018BF04204A0D67
:1038F00018BF40F0010040F2FF72B2EB515F08BF09
:1039000040F00200012808BF0520704730380A281F
:1039100001D20120704700207047000010B5002937
:103920000AD00878002807D005487844FDF7B4FD90
:10393000002801D0002010BD0248784410BD0000CE
:10394000B6270000AE27000010B500290AD008787D
:10395000002807D005487844FDF79EFD002801D0D7
:10396000002010BD0248784410BD0000A6270000CA
:103970009E270000FDF79AB9FDF7CEBA00000000BF
:1039800000000000303132333435363738394142A7
:1039900043444546403058003031323334353637B1
:1039A000383961626364656640307800040000085D
:1039B0000000000000000002000100001030313261
:1039C0003334353637383961626364656678700040
:1039D0003031323334353637383941424344454645
:1039E0005850000002400000000000A0000000004D
:1039F00005400000000000C8000000000C4000006E
:103A00000000409C00000000194000000020BCBEE7
:103A10000000000034400000BFC91B8E00000004FD
:103A2000B5400000504BCFD06607E2CF0100000048
:103A30006C4100003E8251AADFEEA7340100000075
:103A4000D9420000DCB5A0E23A301F97FFFFFFFF2C
:103A5000B4450000FD25A0C8E9A3C14FFFFFFFFF4B
:103A6000FF3F00000000008000000000FF3F00005A
:103A70000000008000000000000000000000005F67
:103A800000000007000700147F147F14242A7F2AF7
:103A900012231308646236495522500005030000C2
:103AA000001C2241000041221C0014083E0814089A
:103AB000083E0808005030000008080808080060A8
:103AC00060000020100804023E5149453E00427F3C
:103AD000400042615149462141454B311814127F43
:103AE0001027454545393C4A4949300171090503CC
:103AF0003649494936064949291E00363600000034
:103B00005636000008142241001414141414004105
:103B10002214080201510906324979413E7E1111F1
:103B2000117E7F494949363E414141227F41412230
:103B30001C7F494949417F090909013E4149497AA8
:103B40007F0808087F00417F41002040413F017FFE
:103B5000081422417F404040407F020C027F7F04D6
:103B600008107F3E4141413E7F090909063E41510F
:103B7000215E7F09192946464949493101017F01E2
:103B8000013F4040403F1F2040201F3F4038403F02
:103B9000631408146307087008076151494543001E
:103BA0007F41410002040810200041417F000402CF
:103BB00001020440404040400001020400205454EF
:103BC00054787F4844443838444444203844444876
:103BD0007F3854545418087E0901020C5252523E48
:103BE0007F0804047800447D40002040443D007F6D
:103BF0001028440000417F40007C041804787C08B1
:103C000004047838444444387C1414140808141408
:103C1000187C7C080404084854545420043F444051
:103C2000203C4040207C1C2040201C3C4030403C3C
:103C300044281028440C5050503C4464544C4400D8
:103C40000836410000007F000000413608001008DF
:103C50000810081F247C241F424D9A000000000019
:103C600000007600000028000000020000000900AB
:103C7000000001000400000000002400000000001B
:103C80000000000000000000000000000000000034
:103C900000000000800000800000008080008000A4
:103CA0000000800080008080000080808000C0C014
:103CB000C0000000FF0000FF000000FFFF00FF0049
:103CC0000000FF00FF00FFFF0000FFFFFF000000FB
:103CD000000099000000BB000000AA000000FF00E7
:103CE0000000FF000000FF000000FF0000000000D7
:103CF0000000FF424DD600000000000000760000EA
:103D0000002800000012000000080000000100046C
:103D1000000000000060000000C40E0000C40E009F
:103D20000000000000000000000000000000008013
:103D30000000800000008080008000000080008083
:103D4000008080000080808000C0C0C0000000FFB4
:103D50000000FF000000FFFF00FF000000FF00FF69
:103D600000FFFF0000FFFFFF0000AAAAAAAAAAAA5C
:103D7000AA0000000000AAAAAAAAAAAAAA000000F3
:103D80000000AAAAAAAAAAAAAA00000000000AAAD9
:103D9000AAAAAAAAA0000000000000000AAAA00087
:103DA00000000000000000000AAAA00000000000BF
:103DB0000000000000AA0000000000000000000059
:103DC000000000000000000000FF424DC60000009F
:103DD0000000000076000000280000001000000035
:103DE0000A00000001000400000000005000000074
:103DF00000000000000000000000000000000000C3
:103E000000000000000080000080000000808000B2
:103E100080000000800080008080000080808000A2
:103E2000C0C0C0000000FF0000FF000000FFFF0056
:103E3000FF000000FF00FF00FFFF0000FFFFFF008A
:103E4000000000000000000000000F0000F0000073
:103E50000000F000000F000000000F0FF0F0000065
:103E60000000FFFFFFFF00000000FF0FF0FF000059
:103E700000000FFFFFF00000000000FFFF00000047
:103E80000000000FF0000000000000000000000033
:103E9000FF00424DC6000000000000007600000058
:103EA00028000000100000000A00000001000400CB
:103EB00000000000500000000000000000000000B2
:103EC0000000000000000000000000000000800072
:103ED00000800000008080008000000080008000E2
:103EE0008080000080808000C0C0C0000000FF0013
:103EF00000FF000000FFFF00FF000000FF00FF00C8
:103F0000FFFF0000FFFFFF000000000000000000B6
:103F10000000FF0000FF0000000FF00FF00FF000A6
:103F20000000FFF00FFF000000FFFFFFFFFFFF009A
:103F300000FFF00FF00FFF0000FFFFFFFFFFFF008B
:103F4000000FFFFFFFFFF000000000FFFF00000078
:103F50000000000000000000FF00424DC60000000D
:103F600000000000760000002800000010000000A3
:103F70000A000000010004000000000050000000E2
:103F80000000000000000000000000000000000031
:103F90000000000000008000008000000080800021
:103FA0008000000080008000808000008080800011
:103FB000C0C0C0000000FF0000FF000000FFFF00C5
:103FC000FF000000FF00FF00FFFF0000FFFFFF00F9
:103FD000000000000000000000000FF00FF00000E3
:103FE00000F0F000000F0F0000FFFFFFFFFFFF00D9
:103FF00000FFFFFFFFFFFF00000FF0FFFF0FF000CB
:104000000000FFFFFFFF000000000F0000F00000B5
:104010000000F000000F00000000000000000000A1
:10402000FF00424DC60000000000000076000000C6
:1040300028000000100000000A0000000100040039
:104040000000000050000000000000000000000020
:1040500000000000000000000000000000008000E0
:104060000080000000808000800000008000800050
:104070008080000080808000C0C0C0000000FF0081
:1040800000FF000000FFFF00FF000000FF00FF0036
:10409000FFFF0000FFFFFF00000000000000000025
:1040A000000F0F0000F0F0000000F0FFFF0F000015
:1040B00000000F0000F000000000FFFFFFFF000005
:1040C0000000FF0FF0FF000000000FFFFFF00000F6
:1040D000000000FFFF0000000000000FF0000000E3
:1040E0000000000000000000FF00424DC60000007C
:1040F0000000000076000000280000001000000012
:104100000A00000001000400000000005000000050
:10411000000000000000000000000000000000009F
:10412000000000000000800000800000008080008F
:10413000800000008000800080800000808080007F
:10414000C0C0C0000000FF0000FF000000FFFF0033
:10415000FF000000FF00FF00FFFF0000FFFFFF0067
:1041600000000000000000000FF0000000000FF051
:10417000000FF00FF00FF0000000FFF00FFF000045
:1041800000FFFFFFFFFFFF0000FFF00FF00FFF0039
:1041900000FFFFFFFFFFFF00000FFFFFFFFFF0002A
:1041A000000000FFFF000000000000000000000011
:1041B000FF00424DC6000000000000007600000035
:1041C00028000000100000000A00000001000400A8
:1041D000000000005000000000000000000000008F
:1041E000000000000000000000000000000080004F
:1041F00000800000008080008000000080008000BF
:104200008080000080808000C0C0C0000000FF00EF
:1042100000FF000000FFFF00FF000000FF00FF00A4
:10422000FFFF0000FFFFFF00000000000000000093
:10423000000F00000000F0000000F000000F000080
:10424000000FFFFFFFFFF00000FFFFFFFFFFFF0079
:1042500000FFF0FFFF0FFF0000F0FFFFFFFF0F0068
:1042600000F00F0000F00F000000F000000F000051
:104270000000000000000000FF00424DC6000000EA
:104280000000000076000000280000001000000080
:104290000A000000010004000000000050000000BF
:1042A000000000000000000000000000000000000E
:1042B00000000000000080000080000000808000FE
:1042C00080000000800080008080000080808000EE
:1042D000C0C0C0000000FF0000FF000000FFFF00A2
:1042E000FF000000FF00FF00FFFF0000FFFFFF00D6
:1042F000000000000000000000F00F000F00F000C0
:10430000000F00F0F00F00000000F00000F00000CF
:104310000FF000000000FF000000F00000F00000BF
:10432000000F0000000F000000F000F0F000F000AF
:1043300000000F000F00000000000000000000005F
:10434000FF808080808080808080808080808080EE
:10435000808080808080808080808080808080805D
:10436000808080808080808080808080808080804D
:10437000808080808080808080808080808080803D
:10438000808080808080808080808080808080802D
:10439000808080808080808080808080808080801D
:1043A0008090A4916F5F5B646A7E866C6D7BA09E3B
:1043B000766590BD6E4F9ACA751060D0BB4164C0DF
:1043C000AF5D006AFD89118CF2670186FF86046E7D
:1043D000E6760195FF5906A0FF6E003CB1FF511B28
:1043E000CFAA2B3DC8B31768F5700B66D2D9274901
:1043F000ED721D39ADFF5B0091FF8A0A3EABFC54A4
:1044000000ACF42E2FCFBE4A008DFF931041BFD7D2
:104410001E54E0A34E0080FF7C0095FF66008AF9E1
:10442000A93F00A6FF3E18C3E5214EE0A346009138
:10443000FF6400A1FF5C00A3FF5F0086F6BF4D0094
:104440007DFF820058C6E25F007AFF9E2B35D5B211
:104450001563D6C83127C6D64B0083FF860668DBB6
:10446000B31269FB68046AE4CC2D33B9F74C00B28F
:10447000F42734C7DC550069FFB62363FE6000767D
:10448000CFF3540089FF7C008CFD792B13A2FF939E
:104490000F3CB4FF3E1AC4DE5B0087FF6000B2FF32
:1044A0004C06B3FF5000A6FF6C006EFF5C007AE480
:1044B000D73918B5FC4B0076FF860185D6BC410084
:1044C000A3FF5F008FFF7E2230C1FF4116D0C932AB
:1044D0001FD1C72A46BEFB390BBEDD57008CFF81BA
:1044E0001B58D1CA361CBAFB5E0090FF5204BEFFB7
:1044F0003C13CADC2A37D4BA234EDDA91B5FD5BDD5
:104500004B0092FF7100A9FF530076F1A4196BCA0A
:10451000D44F0085FF992A3ED8A40794E59A360027
:10452000B9FF4109C5E83622BDF4500071EED2282A
:104530005AD69F3302C5DA3B1FC0FF4608A8FF7A50
:104540000075EB5C0782EABC107CE5792E0FB2FFA8
:1045500068008EFF57009CFE831964D4B74006A400
:10456000FF6B0861B3FF630079E59B2C57D6B53C20
:1045700023AFFF770F32A7FF6200ABF1710E61EE40
:104580007F139FFC5B00A2FB7E1566D4AC3E0FAE92
:10459000FF5A00A3E5A9310EBDE74E0093FF7F1F30
:1045A00078DD942456E37F1483D7C32646CDB242E8
:1045B00000A7FF67058BD7AF4900B0FF7A0F68D51A
:1045C000A44400B3FF4916C5F54100AFFF5800A74A
:1045D000F2742729C6F2430CABFF690095E08E1DEB
:1045E00058C3C63F00C0F1420AB4FF5A00B1FA3FB7
:1045F00018BFEC550087F7621D86DEC53234C8D17E
:104600003A13C4E63B14AFFF67009EEF500094D10D
:10461000CE4700C0EA381CBDFF550095ED87332614
:10462000AEFF5C0091D3963F07BDFF3D11B8FF7709
:104630001534B6F03F00BEF556047EE5A93E37C3FB
:10464000F6370DC0F34100B5FB762A26BBFF4400C8
:10465000BAFF832D1DB6FF530094D3BB5100B5FFA5
:1046600054099EF05B0BB5F9631375E56B2179D79F
:10467000CE2657D5992F2FD3B12077E1801891EC12
:104680005B1F79D0D73D00B5FF5502A5E4631C5CE4
:10469000D5C2276CD3A44200BDFF6D2A35CAE33EC4
:1046A00014B3FF631461C0DB3B01BEFF541753BA60
:1046B000FF3E00BFEC4200C1F23B1CD0D4381EB517
:1046C000FF4108C6DD2E1FCCCB2A3FD5B03531C205
:1046D000FB3C06A7F65C1385C7D33C00AAFC7E20F2
:1046E00068D1952951CCC02A4ADA9F3149C1FA4E86
:1046F00000AAEB430FB1FC571F7EC3F34400B4E69E
:1047000040089EF282286DBFDF4000AAE4972F2662
:10471000C8D53F0098F3A7277CDE69362BBEFF394A
:104720000EAFEB8E1C5BC2AB2E17C9F045078FEFA7
:1047300091229DEE4F2956BEFF3B00BFEA70282B09
:10474000C5F83903C2FF4611BFE8530D6BD1BE3621
:1047500029D1D93419CDEF3614C0FB711D2BBEFD04
:10476000340091EBA52285E074215ED4A52163E697
:104770006D17B6E96E206ADA941E80E8560FBFF016
:10478000602A49C9FC2D06D0EE35009DF7822968C4
:10479000BEF32A00B0DE8C2C06C9FF3900A9D8AFC1
:1047A0003110D9CB2048D5B92D33E2B02459C9FAFC
:1047B0004500B1E3351598F595275EC8FA3B0086AC
:1047C000D8921B90E0792D2ED6F01F40E19D285BFA
:1047D000CDCE2B10D4FE4B00A0EC4E2576D7D723A0
:1047E00044D1C42E02D1F13C01AEF950268BD5DD67
:1047F0002B00B6F2861464CDA13105D1FF2C22DF47
:10480000DB2C15BBFF401988E1A80F86CC8B222436
:10481000D2DB3206D8ED223AD1DE3500BCE68C245C
:1048200041E38E2956DAD31D52DAA52533CEEF2285
:1048300003DCD62921CBFF3604ACE8621991D48978
:104840001C5DD1AD2A17E0CF1B5EDBB33206C6FF7D
:10485000611A95DE5C2267D4D4271BD3FC4500A0E7
:10486000E1591E84DBA3254BDAC32724E4C420547A
:10487000E2981982D1972730E4A72845D1FB261664
:10488000D6E02302AAF1681AA1CCB22900CFFA5AC5
:104890001776E0702190DE893335CEFE3704B7D627
:1048A000842E05D5FF2A1EACE7A7202DD5CA1156A8
:1048B000E3713155D5FC1D20E5BD2820BFFE530D09
:1048C000A5DC49236CDED0223FDBD5230EC3EB8968
:1048D0002B00C9FF2D229FE5A11E53DCA22936CD56
:1048E000F82613B1E0AA1F19E2C61F47D7EC26002D
:1048F000CEED341FD8D92216DAF94A109CDE3E1CC0
:10490000D8F144118EDC5913BFE3512A54CFFF2351
:1049100000B4CF9D2133DFB4262AE2E6173FDEBC88
:104920002809CDFF422D6BD1FC1A00D5E354128C1F
:10493000D5843318D0FF4127D5DE281A73D7F21B50
:1049400015E0E1300B9BE57B2F77DCA81779D4814C
:104950002E19CCFF4D1DAACE7C2E18CAFF3F25D0A4
:10496000DB2E11A6DF5B23B3E4462987D7D61614C6
:10497000E6C01C53D6BF1E20E3CF1E47E5A9283D45
:10498000C7F8461399CD7B2A4EDDC11668D1A92AF6
:1049900006D7F63A29CBDA2E11C0DD492987E39AEA
:1049A0002D4BCAF23B0CADC92D2C95E8AB2848D055
:1049B000E61B0AD7CB262DD9E21E1FD9D2241ACA4C
:1049C000DF862D22E3D52041DDC2242FC6E77318F0
:1049D0005DC5AA2036E4B32C38C6EE802C27D5E37B
:1049E000172CDAD42E14A3DC683D65D4F52B1A6A93
:1049F000C9EC1E0FD5DA372E7AD6CB1849D7A325A6
:104A000042E0AE2A45C6EB5C2A54C8E21B17D4D15B
:104A1000412697D9622DBCD25E3D46D2F2412F4944
:104A2000CBF71B2691CEDB1E109BE0982C74CBB1EC
:104A3000251CC6E3522F99C77B2C67DB822AA9C5A8
:104A4000783429BCEF5031B5CE442DA3C4A623251C
:104A5000E3B4295CDDAA2965D3AC2E28C7DF353C39
:104A60008ADAB61B6AC9823131BCEA732E89CB5807
:104A700031AEC4773541D2D21F20C2D64833C6C723
:104A8000322BA7D04F32BCCD553188C1A02B21D9B4
:104A9000DC4F3767CEC72431DBBD294CD5C6242671
:104AA000B7D8633E59CAEA2F28A7C65E2DB6C25AA8
:104AB0003C45D6DA2C4DD2BC212D8BD5CD2432D914
:104AC000BF2A2BB9D75A4564CCDC223DD0BA292560
:104AD000A8CE803971CDAC2944DCA33253CED73077
:104AE00029A2C27C3E46BEE0413BCDB82934D0C7A6
:104AF0003D3191CA703D93CA8E2F69CC932D64CFFE
:104B00009C2F59CEB0216ACD744055C5DA3E3B7C0E
:104B1000C8B3215CCF89316EC2AA283BDBA82F5DC8
:104B2000CEBA273495D5B82542D1BF2D2ACAB8327E
:104B30004985E0BA2370BF962D2AC9CE463EA0C251
:104B4000763C69CFAC2E43CDC32C48CEB52C31B5C5
:104B5000C86B4274C6AE2B33A4D87933AFB3593D7A
:104B60005FD29E3564CDBA2733A9CE774158B7D3EB
:104B70003B3CC8B03B3D74CBBE294BD4B12E3BC5AA
:104B8000C44144A4C36939A8B557426DC9BF28338D
:104B9000C0C2784050CDCB3236C3B64F4963D2BE87
:104BA0003253CBC02D38AEBC5641C4B02E4FD0A925
:104BB0003144C1C6644654CAC72C417DCFB5335178
:104BC000C8BE2F3CACB85443BCB9544190C36B49E8
:104BD0006FC2CE3C3D95B86F3CA7B1684550CEC082
:104BE0003A4FC7AD37538CCDAF1D2FB5B84E536676
:104BF000C3CC36496BC6BB2F4E90CD823C5EBDC147
:104C0000424172C4983487B6893A44CFC44E459A1B
:104C1000B65D499DBB684D67B6CF4548C0AA403FC9
:104C2000A6B15A5569BCCC434BC6AB404C68C6CB09
:104C3000414979BEB12B489DC5A73241CAA442580B
:104C400091D28A3F5FB8BE4A446FBFB82A47C9AC09
:104C5000395295C6AE2F40BBB44757C19F3852C397
:104C6000AD3E52B8B34B4B9CB8684594B5694A7495
:104C7000C0B23248A8B7614C8BB296335CC4993746
:104C800050C3B74157C3934259A7BF684C6CBFA2EA
:104C90003552BDB2434F75C2BD304696B97445A179
:104CA000A66B4E59C4B93956C0A43E52A9B6604C41
:104CB0009DAA794172BD754E6CABC5743C73B47DD1
:104CC0004761BDB53C59C3A23F4C95B87846A2A8F0
:104CD00050549BB869506EAFB8445396B198314761
:104CE000BBAF604F61B8B54754AAAB565483C0A759
:104CF000344DA7B26F4B5BB3B957518DB372536D3F
:104D0000ADBC555270BAAA375BC0A33C4E9DB56D81
:104D1000548AB9953D53ABB6754A58C1AE435678DF
:104D2000BFB43455A8AE5A52B49C55556FC1A44176
:104D300063ADB06B4760BBA24162B8A3485AB9A546
:104D400048539CAF7B4974BD855073BC9F3B5685CF
:104D5000C59D3F6DB69D3A529DB2794B5C95C2831D
:104D600044579FB66A4D79B3874A6BB4A0415BA99B
:104D7000A9684E63B3AD495FB9A04A5980B6A3395B
:104D80005DBE9F4656AF9F526292BA993F53B4A6FA
:104D9000565890AB79526AB8A44A5D9DAB6854816D
:104DA000B594405C8AC0A63757B898465D9FB069F5
:104DB000589BA072507CB57A527FB3964258ADABE7
:104DC000575E97AB85456AB9834D678DC589497F25
:104DD000A7844656A3B1695986AB854A6ABA8F4DF6
:104DE00069ACA64F588EAA7A506992BE87475FAECB
:104DF0009C49627EBA9F415A8DB28B4B65AD9C4AED
:104E0000629CA87B4B73B08F4565B9914B6AB7958F
:104E10004B61A0A46060A79A65528CA66464779FDA
:104E2000B35C5E82B09B3F569DA4685C85AF8F48A3
:104E300066AA965563A3A5645B7095B9755081A267
:104E40006F578CA46F5C8EA3804E71B08D4C62AD99
:104E5000A26A5B72B3944A69A3A36459919963648B
:104E600088B17F56728AB889455EA3A05D637AB126
:104E70009C485E96A46D6088AB83526993AF695B72
:104E8000979668606B92B8765890986C5F77B195FA
:104E900048667CB0A5546088A582506CAB97526878
:104EA0008DAA85536796AC825164A99D626371A9EE
:104EB0009F556B96A2785770AB974D67A9905D662A
:104EC0008BB27C5E7385B5864D66A2995D5F72A6D6
:104ED00096506991A3725A9293646583AB8A4F6B23
:104EE00080B2984E5F87A3825673A78F586C9A9EA4
:104EF00075596CAA9959669894706371AD925A6D00
:104F00008FAA79596C8FAB82526CAA8B506B82AD91
:104F10009E556A7FA9995065949A6D6488A0795EC0
:104F200075A3935D6991A06E6477A09D606775A875
:104F30009351698BA58856679E9A6569939C7362A5
:104F4000749C995B6BA1915D6D7493AE6A6A768A6D
:104F5000A86B5F8995746072A3945D6B85A38B5376
:104F600069A093606E99926969758DAD855471A33E
:104F700084566D7EA595616C7FA692516C928A676E
:104F80006B9990686D84A48261749895666A81A417
:104F90008953698DA07D606E8CA77965749B915E45
:104FA0006C879F84586C8AA5825E76A0895B6C8A28
:104FB0009C826172A08F5B70968D666D9691686C15
:104FC000968E6D6C7FA3885B6E86A18460709495CD
:104FD0006F6582997D637189A8885A6C8F98736A0E
:104FE0007D998A5D7A9A7F637D9E7767748AA77AB6
:104FF00061739591696C8892716D7685AC855D6DF4
:105000008B96716C8693806170979369737E8E998D
:105010006B6B7A9493656C82997F6578948B6A71D7
:105020007FA08B616D88987B697E9A8A5E6F8B9575
:105030007B6977988F6A6E87927A6976998F6C719F
:10504000749191696F7C99875D72968666757C9480
:10505000966D707B978A60707C988E69707D9A855A
:1050600066747E9A916C6F738D966E747A859E735A
:105070006F80816367A4D6811F69CC76375C8CE131
:10508000983D549AB8654B81D1872F5E7DCFA64855
:105090004F87C376447ACD88406A8FAD69367AC827
:1050A000854A6AD7EC5B2B54A373225196D1B8C6BC
:1050B000BF715F0C004FA76F78EEFFFF7600000016
:1050C000000059ECFFFFFFFFBE00000014AAA189F9
:1050D000FFFFFFB52500000F003CA7FFFFFFFFFF0C
:1050E0003C0000293C2C80D3FFFFFF96330C0000CE
:1050F0000A88C9D0ECFFFFD10000000F101F80FF0D
:10510000FFFFFFFC900000004D444BABFFFFFFE9A9
:105110008B350000096A4D7BD1FFFFFF92440700E9
:10512000000088A69FDBFFFFFF5200000000005137
:10513000D6E1E5FFFFFF730000004B3F2F7ED1FF5C
:10514000FFFFDE7736000000708567B9FFFFFFDEE6
:10515000884A000000666062B1FFFFFFFFBF770072
:1051600000002C7D747ADEFFFFFFEC62320000004D
:105170001181D0A4C2FFFFFFC61300000000289ACF
:10518000CDBFD1FFFFFF934A14000000708C77B4AD
:10519000FFFFFFECD37A0000002155517BCFFFFFCA
:1051A000FFFFFF840000001D1F2173B8FFFFF8FF01
:1051B000FFE221000000372C3A80D7FFF3FFFFFF0A
:1051C000E2240000000C1F62AAE8E1E4FFFFFF8C6C
:1051D00027000000000D60C0C0AEF2FFFFFFCF321D
:1051E00000000000004695E8C0BFF8FFFFEC8C28E7
:1051F000000000001876D0A7A3E0FFFFFFD1893F91
:105200000A00000058787399B5FDFFFFE4EFDB5703
:1052100000000000163682CCC8B1EEFFFFE7D0894F
:105220004B000000005E6970B2E1CCD7FFFFFFC900
:10523000702C0A0000005B6573A7D6F5E8D8FFFF65
:10524000E1963F170000002865718CC6D8C6DBFFC9
:10525000FFE9B4895111000000404E6C9AC5F0D4AA
:10526000CFE9FFFFD190472400000016676A88AAA3
:10527000C8F8DDD4E9FFFFC37025060000001B7EDF
:10528000808BADBEE0F3DDD6E9FFDD903602000095
:105290000000439AB1A1ADABD6FADDD3E1F3CC7AED
:1052A0003009030000024B9AA7A0B1CADAC3C3DDDC
:1052B000F9EBBC8F69350000000F3F4F85A6CAD7B8
:1052C000AEA0BFF0E5CDC8CFCC6D14000000001338
:1052D00059A4AEA3A8BBD8B7ABCAD3F0D4AB9A71CC
:1052E000440000000010367398C8D6B29DB0C9C003
:1052F000B1C3DAD0A888573702000000374D6C9848
:10530000B4D3C6A6AABBC3B5B9CDDAAE95845B3C0F
:105310000000000340586C9FC6C5B5A7B1C2AD9F41
:10532000B8BED6CAA0998C67220000030613477343
:10533000A6CCB8AAB7C5A69098B4CCC2AEB4B99D55
:1053400084603C24000000184E697D9CB9CAB1A855
:10535000A8B5AA8E9AB4C9B5A7A8ABAA80552C1E29
:10536000100003163A788995ADB0C2B9A49C9CAAE6
:105370009288A1B9BFAB9CA3A88E6C543C110007C6
:105380001D30375580ABB7ABB2BBB2A09398A0929B
:105390008595A8BCAA9A9F9F9C826D604417050DB5
:1053A000173247516A92A8BCBFADABA8AEA18B8B98
:1053B0009390848E9FB0AEA099969396806D5B3546
:1053C0002C220F18284652607E95B4B8B2ADAEB10B
:1053D000A690909596897E818F95999CA3A8958B90
:1053E000888788766A5C4A2E1A1F2C373C4B5B777D
:1053F000929CA6ADB7B7A8A19F9F9C8E8B8F8F84E0
:1054000080828B90898F98A3A0938C8588817470FB
:1054100076705944322E35353A4354696971889C07
:10542000AAABADB0B1A7A09999988C8B8E8C8C82C9
:10543000848189858080878C8E8F939692888281E3
:105440007E80746F717877572E0D000635608BA1C2
:10545000C8FFFFAE523A3769DBD052474670EBCCFB
:105460004F464778EFCF4F444376F2CC4E414170E0
:10547000F2CF4E403C6DF3D34D3A3967F5D8513CED
:105480003A63E8E152353A58DDEC62353A51CDFAEB
:1054900076333748B7FF8B33393FA7FFA437363908
:1054A0008FFFBF3A353773FFD64B333760E8F36071
:1054B0002C364EC8FF852F393FA3FFB13537377AD9
:1054C000FFD7402F3362EEF5622E3C4BBFFF962E86
:1054D00035378EFFC93A303265F3F35B2C3346BE65
:1054E000FF982E363A81FFD4442B325CDEFF742BBA
:1054F000363DA4FFBB332E3566F8F65E293641B043
:10550000FFAE302E3671FFEC51283648B1FFA82F80
:10551000303A6FFCF5592E3347B0FFB4322E366562
:10552000EBFF6A29364098FFCF3F273358CAFF8CDC
:1055300028303778FFF052283544A3FFBF332E328E
:105540005ED6FF8828353978FFF2582936469CFF09
:10555000CF3C2B3555BEFFA62E2F3C65DEFF7D29A7
:10556000303D7AFFF35F25334690FFDD4329364B0C
:10557000A4FFC8372B3554B8FFB1322E395FC9FFAD
:105580009C2F2F3C65D8FF8B2C323D70E0FF7E2C8A
:10559000334171E5FF7A27303F73ECFF782F3040BD
:1055A00077E7FF762B324474E5FF802E2F4370DBC4
:1055B000FF872F353F6CCDFF9A32303D62C0FFAA86
:1055C00032323A5CADFFC339272E4D95FFD04122D0
:1055D000334E89FFE94F29324878E8FF702B2F437B
:1055E0006AC9FFA02F2F3C5CAAFFC83F2E37528EFE
:1055F000FFF25B30324B76D4FF92302F3F65A7FF2E
:10560000C9402F395488F3FD6A2C37476FBCFFB16E
:10561000372F375B92FCF35C2F364D71BFFFA836F6
:10562000303F5C90FAF36033324A6AB8FFB93930E0
:10563000365785E9FF7432334169A4FFD6433035CC
:105640005476C8FFA037333A5F8CF2FC6C3033439A
:10565000659FFFD84732325171B4FFBB392F35589F
:105660007ACDFF9932303D6087E2FF7B333541626E
:1056700090F2F0663030486792FFE85432354A675E
:105680009CFFDE5433364F6A9FFFE04E35364B6A3F
:105690009AFFE25533364B6998FFE45933364A6A2C
:1056A00093F5EE6A32324A678BE7FA7E353541650B
:1056B00081D0FF9336353D5B78BFFFB13D2F395721
:1056C00073A4FFD34736354E6D92F3F06C373741F4
:1056D0006980CAFF9C3A333A6273ABFFD04A3335D4
:1056E0004F708FE4FD80373340667AB5FFC3433097
:1056F00039596F8FE9F97B3A37446677B0FFC34871
:10570000333A547088D8FF9637333C5C739FFDE57D
:1057100063363A48677BB2FFC344353C517188CF4A
:10572000FFA43D333A597790E1FF893A36405E77DE
:105730009AEFF070363A4467779CF6E0602E30417D
:1057400065769FF6E05E3237416A7A9FF8DD633313
:105750003744697E9CF3E46C373346657A9AE7F206
:1057600080373741627790D7FF983C363F5B778828
:10577000C2FFB540333F556D7EABFFDA5E393A4725
:105780006C7A99E1F58C3933435E7688BBFFC04A69
:10579000353A526D7E9AE5F6823939435F7684B7A1
:1057A000FFC54D363C4E6A7D96D6FF993D363F5833
:1057B000747EA6F2E2703A3243607888B4FFCA4F32
:1057C000363747667A8EC3FFB544353C4F6C7D90C3
:1057D000C6FFAB433239556C7E90CAFFA841323ABE
:1057E00055708092C5FDAD43323952697B8BBEFD49
:1057F000B948323A4F6C7E89B1F9CF5C3A3C486384
:105800007785A1E5EC823A33435E717E93C6FCAEA8
:1058100043323D54698088A4F3DB673A35436074B2
:105820008292C6F9AA44323D4F6F7E85A3E7E57D9B
:105830003A32405F70818CB1F8CA5C3A3648637680
:105840008493BEF9BB4B3539516A768590C8FFB059
:1058500043363C516D7B898FC5FCAD47353C516A61
:1058600076898FBEFABB4D363F4D66778590B1F095
:10587000CA6336364A62768489A4E0E8843C303FC5
:105880005E737E8C98C3F9B24837374E6D77879038
:10589000A8E1E4813F323F5B70818B90BCEFC85C34
:1058A0003C39476577858F95C5F9B44835394665E4
:1058B00071818890C5EEA74432374D6676858C9607
:1058C000C5F0AA46393C516674848E8FBEF0BB5732
:1058D0003539486376848F8FADE5D4783C32445BAC
:1058E000737E888C9CC6EFA848373A4F6A78858BC0
:1058F0008FA8E0DA843C30435B707D858F92B0E8FE
:10590000CC6C3733475E717E8B9090B5E8C36739B6
:1059100035475F70818C8C8FAEE2CC733933475E34
:10592000707D878F8FA4D1E09240333C4F6C7B8594
:105930008C8C96B8E5BB593636486074818B898E5D
:10594000A0C5E59C4433374E6A7682888C92A1CC00
:10595000DD9540333F4F6978818C8E8BA0CADD9CEA
:1059600040353C4B6678828C90909ABCE0B25937B7
:1059700036465F747D898F8E8EA4CCD8903F333F9E
:1059800054667682888C8F93ABD6C67A3C30415869
:105990007076848B8B8B8FA8D1CA803C324157693B
:1059A00078848B8B8F8FA0C6D49846363C4F657613
:1059B000828989898E92AED0C274393347596F7B00
:1059C00080898C8F9392B1D3B86D3933465C6F7BED
:1059D0008889898F8F93ABCAC6803D323F556C78DA
:1059E000848B8C8F8F8C98B8D0A35936364A6070D0
:1059F00080848C8B8F8E8C9DB8CD9F543A354862B5
:105A000074818B8F8E928C8993B0C9B46F39334671
:105A10005C6F7D848C8E908E8C8B9AB7CD9D543626
:105A200033465C6A7D85888E8C89888790B4C8A34C
:105A30006237324B59707D858B8C8F8C8B89879D1B
:105A4000BCC3904B373751637384898F8E8E8B8C98
:105A5000888899B8C5995439374D627380898E8C7E
:105A6000908B88898B8EA1B9B98B4A36404F66746A
:105A7000818B8B8C908B8C88878896B0C0A1603A84
:105A8000354D60737B848E8B8B8E8E878987829653
:105A9000B1BCA0653A36485B6F7A87898F8E8E8B52
:105AA000888987828599B0B995573D374D5E708159
:105AB000878B8B8E8C8B888987848089A1B2B784F1
:105AC0004B353C51657682888C8B8F8C8788898298
:105AD0008184808CA7B5A773463643556C77888838
